{
  "contractName": "InsuranceContract",
  "abi": [
    {
      "inputs": [
        {
          "internalType": "address",
          "name": "_prescriptionContractAddress",
          "type": "address"
        }
      ],
      "stateMutability": "nonpayable",
      "type": "constructor"
    },
    {
      "inputs": [],
      "name": "prescriptionContractAddress",
      "outputs": [
        {
          "internalType": "address",
          "name": "",
          "type": "address"
        }
      ],
      "stateMutability": "view",
      "type": "function",
      "constant": true
    },
    {
      "inputs": [
        {
          "internalType": "uint256",
          "name": "_prescriptionId",
          "type": "uint256"
        }
      ],
      "name": "verifyPrescriptionPayment",
      "outputs": [
        {
          "internalType": "bool",
          "name": "",
          "type": "bool"
        }
      ],
      "stateMutability": "view",
      "type": "function",
      "constant": true
    },
    {
      "inputs": [
        {
          "internalType": "uint256",
          "name": "_prescriptionId",
          "type": "uint256"
        }
      ],
      "name": "markPrescriptionReimbursed",
      "outputs": [],
      "stateMutability": "nonpayable",
      "type": "function"
    }
  ],
  "bytecode": "0x608060405234801561001057600080fd5b506040516105143803806105148339818101604052810190610032919061011c565b806000806101000a81548173ffffffffffffffffffffffffffffffffffffffff021916908373ffffffffffffffffffffffffffffffffffffffff16021790555080600160006101000a81548173ffffffffffffffffffffffffffffffffffffffff021916908373ffffffffffffffffffffffffffffffffffffffff16021790555050610149565b600080fd5b600073ffffffffffffffffffffffffffffffffffffffff82169050919050565b60006100e9826100be565b9050919050565b6100f9816100de565b811461010457600080fd5b50565b600081519050610116816100f0565b92915050565b600060208284031215610132576101316100b9565b5b600061014084828501610107565b91505092915050565b6103bc806101586000396000f3fe608060405234801561001057600080fd5b50600436106100415760003560e01c8063237c058b146100465780638acabae314610076578063ff21110714610094575b600080fd5b610060600480360381019061005b9190610244565b6100b0565b60405161006d919061028c565b60405180910390f35b61007e610155565b60405161008b91906102e8565b60405180910390f35b6100ae60048036038101906100a99190610244565b610179565b005b6000600160009054906101000a900473ffffffffffffffffffffffffffffffffffffffff1673ffffffffffffffffffffffffffffffffffffffff16635908e44e836040518263ffffffff1660e01b815260040161010d9190610312565b602060405180830381865afa15801561012a573d6000803e3d6000fd5b505050506040513d601f19601f8201168201806040525081019061014e9190610359565b9050919050565b60008054906101000a900473ffffffffffffffffffffffffffffffffffffffff1681565b600160009054906101000a900473ffffffffffffffffffffffffffffffffffffffff1673ffffffffffffffffffffffffffffffffffffffff1663ff211107826040518263ffffffff1660e01b81526004016101d49190610312565b600060405180830381600087803b1580156101ee57600080fd5b505af1158015610202573d6000803e3d6000fd5b5050505050565b600080fd5b6000819050919050565b6102218161020e565b811461022c57600080fd5b50565b60008135905061023e81610218565b92915050565b60006020828403121561025a57610259610209565b5b60006102688482850161022f565b91505092915050565b60008115159050919050565b61028681610271565b82525050565b60006020820190506102a1600083018461027d565b92915050565b600073ffffffffffffffffffffffffffffffffffffffff82169050919050565b60006102d2826102a7565b9050919050565b6102e2816102c7565b82525050565b60006020820190506102fd60008301846102d9565b92915050565b61030c8161020e565b82525050565b60006020820190506103276000830184610303565b92915050565b61033681610271565b811461034157600080fd5b50565b6000815190506103538161032d565b92915050565b60006020828403121561036f5761036e610209565b5b600061037d84828501610344565b9150509291505056fea2646970667358221220520b604fbc4bc245ece08d252e28edb8dd37160542660088de5d591251d04d4c64736f6c63430008110033",
  "immutableReferences": {},
  "source": "// SPDX-License-Identifier: GPL-3.0\r\npragma solidity >=0.7.0 <0.9.0;\r\n\r\n// Import the Prescription Contract\r\nimport \"./prescription.sol\";\r\n\r\ncontract InsuranceContract {\r\n    // Address of the Prescription Contract\r\n    address public prescriptionContractAddress;\r\n\r\n    // Instance of the Prescription Contract\r\n    PrescriptionContract prescriptionContract;\r\n\r\n    // Constructor to set the address of the Prescription Contract\r\n    constructor(address _prescriptionContractAddress) {\r\n        prescriptionContractAddress = _prescriptionContractAddress;\r\n        prescriptionContract = PrescriptionContract(_prescriptionContractAddress);\r\n    }\r\n\r\n    // Function to verify prescription payment status\r\n    function verifyPrescriptionPayment(uint _prescriptionId) public view returns (bool) {\r\n        return prescriptionContract.getPrescriptionPaidStatus(_prescriptionId);\r\n    }\r\n\r\n    // Function to mark prescription as reimbursed\r\n    function markPrescriptionReimbursed(uint _prescriptionId) public {\r\n        prescriptionContract.markPrescriptionReimbursed(_prescriptionId);\r\n    }\r\n}\r\n",
  "sourcePath": "C:\\Users\\21697\\OneDrive\\Bureau\\ii E\\II 2-E\\PCD\\project\\project\\contracts\\insurance.sol",
  "compiler": {
    "name": "solc",
    "version": "0.8.17+commit.8df45f5f.Emscripten.clang"
  },
  "schemaVersion": "3.4.16",
  "updatedAt": "2024-04-25T09:40:02.823Z",
  "networkType": "ethereum",
  "devdoc": {
    "kind": "dev",
    "methods": {},
    "version": 1
  },
  "userdoc": {
    "kind": "user",
    "methods": {},
    "version": 1
  }
}