{
  "contractName": "PatientContract",
  "abi": [
    {
      "inputs": [
        {
          "internalType": "address",
          "name": "_prescriptionContractAddress",
          "type": "address"
        }
      ],
      "stateMutability": "nonpayable",
      "type": "constructor"
    },
    {
      "inputs": [],
      "name": "prescriptionContractAddress",
      "outputs": [
        {
          "internalType": "address",
          "name": "",
          "type": "address"
        }
      ],
      "stateMutability": "view",
      "type": "function",
      "constant": true
    },
    {
      "inputs": [
        {
          "internalType": "uint256",
          "name": "_prescriptionId",
          "type": "uint256"
        }
      ],
      "name": "getPrescription",
      "outputs": [
        {
          "components": [
            {
              "internalType": "address",
              "name": "doctor",
              "type": "address"
            },
            {
              "internalType": "address",
              "name": "patient",
              "type": "address"
            },
            {
              "internalType": "string",
              "name": "medication",
              "type": "string"
            },
            {
              "internalType": "string",
              "name": "instructions",
              "type": "string"
            },
            {
              "internalType": "bool",
              "name": "isDeleted",
              "type": "bool"
            },
            {
              "internalType": "bool",
              "name": "paidStatus",
              "type": "bool"
            },
            {
              "internalType": "bool",
              "name": "reimbursementStatus",
              "type": "bool"
            }
          ],
          "internalType": "struct PrescriptionContract.Prescription",
          "name": "",
          "type": "tuple"
        }
      ],
      "stateMutability": "view",
      "type": "function",
      "constant": true
    }
  ],
  "bytecode": "0x608060405234801561001057600080fd5b506040516108933803806108938339818101604052810190610032919061011c565b806000806101000a81548173ffffffffffffffffffffffffffffffffffffffff021916908373ffffffffffffffffffffffffffffffffffffffff16021790555080600160006101000a81548173ffffffffffffffffffffffffffffffffffffffff021916908373ffffffffffffffffffffffffffffffffffffffff16021790555050610149565b600080fd5b600073ffffffffffffffffffffffffffffffffffffffff82169050919050565b60006100e9826100be565b9050919050565b6100f9816100de565b811461010457600080fd5b50565b600081519050610116816100f0565b92915050565b600060208284031215610132576101316100b9565b5b600061014084828501610107565b91505092915050565b61073b806101586000396000f3fe608060405234801561001057600080fd5b50600436106100365760003560e01c80636f16af101461003b5780638acabae31461006b575b600080fd5b61005560048036038101906100509190610216565b610089565b60405161006291906103d2565b60405180910390f35b610073610139565b6040516100809190610403565b60405180910390f35b61009161015d565b600160009054906101000a900473ffffffffffffffffffffffffffffffffffffffff1673ffffffffffffffffffffffffffffffffffffffff16636f16af10836040518263ffffffff1660e01b81526004016100ec919061042d565b600060405180830381865afa158015610109573d6000803e3d6000fd5b505050506040513d6000823e3d601f19601f8201168201806040525081019061013291906106bc565b9050919050565b60008054906101000a900473ffffffffffffffffffffffffffffffffffffffff1681565b6040518060e00160405280600073ffffffffffffffffffffffffffffffffffffffff168152602001600073ffffffffffffffffffffffffffffffffffffffff16815260200160608152602001606081526020016000151581526020016000151581526020016000151581525090565b6000604051905090565b600080fd5b600080fd5b6000819050919050565b6101f3816101e0565b81146101fe57600080fd5b50565b600081359050610210816101ea565b92915050565b60006020828403121561022c5761022b6101d6565b5b600061023a84828501610201565b91505092915050565b600073ffffffffffffffffffffffffffffffffffffffff82169050919050565b600061026e82610243565b9050919050565b61027e81610263565b82525050565b600081519050919050565b600082825260208201905092915050565b60005b838110156102be5780820151818401526020810190506102a3565b60008484015250505050565b6000601f19601f8301169050919050565b60006102e682610284565b6102f0818561028f565b93506103008185602086016102a0565b610309816102ca565b840191505092915050565b60008115159050919050565b61032981610314565b82525050565b600060e0830160008301516103476000860182610275565b50602083015161035a6020860182610275565b506040830151848203604086015261037282826102db565b9150506060830151848203606086015261038c82826102db565b91505060808301516103a16080860182610320565b5060a08301516103b460a0860182610320565b5060c08301516103c760c0860182610320565b508091505092915050565b600060208201905081810360008301526103ec818461032f565b905092915050565b6103fd81610263565b82525050565b600060208201905061041860008301846103f4565b92915050565b610427816101e0565b82525050565b6000602082019050610442600083018461041e565b92915050565b600080fd5b7f4e487b7100000000000000000000000000000000000000000000000000000000600052604160045260246000fd5b610485826102ca565b810181811067ffffffffffffffff821117156104a4576104a361044d565b5b80604052505050565b60006104b76101cc565b90506104c3828261047c565b919050565b600080fd5b6104d681610263565b81146104e157600080fd5b50565b6000815190506104f3816104cd565b92915050565b600080fd5b600080fd5b600067ffffffffffffffff82111561051e5761051d61044d565b5b610527826102ca565b9050602081019050919050565b600061054761054284610503565b6104ad565b905082815260208101848484011115610563576105626104fe565b5b61056e8482856102a0565b509392505050565b600082601f83011261058b5761058a6104f9565b5b815161059b848260208601610534565b91505092915050565b6105ad81610314565b81146105b857600080fd5b50565b6000815190506105ca816105a4565b92915050565b600060e082840312156105e6576105e5610448565b5b6105f060e06104ad565b90506000610600848285016104e4565b6000830152506020610614848285016104e4565b602083015250604082015167ffffffffffffffff811115610638576106376104c8565b5b61064484828501610576565b604083015250606082015167ffffffffffffffff811115610668576106676104c8565b5b61067484828501610576565b6060830152506080610688848285016105bb565b60808301525060a061069c848285016105bb565b60a08301525060c06106b0848285016105bb565b60c08301525092915050565b6000602082840312156106d2576106d16101d6565b5b600082015167ffffffffffffffff8111156106f0576106ef6101db565b5b6106fc848285016105d0565b9150509291505056fea2646970667358221220c29b5f7236e2c5a0002e927d7acfb41fdd66d0d6904c58e424d4a2d116440be164736f6c63430008110033",
  "immutableReferences": {},
  "source": "// SPDX-License-Identifier: GPL-3.0\r\npragma solidity >=0.7.0 <0.9.0;\r\n\r\nimport \"./prescription.sol\";\r\n\r\ncontract PatientContract {\r\n    address public prescriptionContractAddress;\r\n    PrescriptionContract prescriptionContract;\r\n\r\n    constructor(address _prescriptionContractAddress) {\r\n        prescriptionContractAddress = _prescriptionContractAddress;\r\n        prescriptionContract = PrescriptionContract(_prescriptionContractAddress);\r\n    }\r\n\r\n    function getPrescription(uint _prescriptionId) public view returns (PrescriptionContract.Prescription memory) {\r\n        return prescriptionContract.getPrescription(_prescriptionId);\r\n    }\r\n}\r\n",
  "sourcePath": "C:\\Users\\21697\\OneDrive\\Bureau\\ii E\\II 2-E\\PCD\\project\\project\\contracts\\patient.sol",
  "compiler": {
    "name": "solc",
    "version": "0.8.17+commit.8df45f5f.Emscripten.clang"
  },
  "schemaVersion": "3.4.16",
  "updatedAt": "2024-04-25T09:40:03.284Z",
  "networkType": "ethereum",
  "devdoc": {
    "kind": "dev",
    "methods": {},
    "version": 1
  },
  "userdoc": {
    "kind": "user",
    "methods": {},
    "version": 1
  }
}