{
  "contractName": "PatientContract",
  "abi": [
    {
      "inputs": [
        {
          "internalType": "address",
          "name": "_prescriptionContractAddress",
          "type": "address"
        }
      ],
      "stateMutability": "nonpayable",
      "type": "constructor"
    },
    {
      "inputs": [],
      "name": "prescriptionContractAddress",
      "outputs": [
        {
          "internalType": "address",
          "name": "",
          "type": "address"
        }
      ],
      "stateMutability": "view",
      "type": "function",
      "constant": true
    },
    {
      "inputs": [
        {
          "internalType": "string",
          "name": "_patientUsername",
          "type": "string"
        }
      ],
      "name": "getPrescriptionsByPatient",
      "outputs": [
        {
          "components": [
            {
              "internalType": "string",
              "name": "doctorUsername",
              "type": "string"
            },
            {
              "internalType": "string",
              "name": "patientUsername",
              "type": "string"
            },
            {
              "internalType": "string",
              "name": "medication",
              "type": "string"
            },
            {
              "internalType": "string",
              "name": "instructions",
              "type": "string"
            },
            {
              "internalType": "bool",
              "name": "isDeleted",
              "type": "bool"
            },
            {
              "internalType": "bool",
              "name": "paidStatus",
              "type": "bool"
            },
            {
              "internalType": "bool",
              "name": "reimbursementStatus",
              "type": "bool"
            }
          ],
          "internalType": "struct PrescriptionContract.Prescription[]",
          "name": "",
          "type": "tuple[]"
        }
      ],
      "stateMutability": "view",
      "type": "function",
      "constant": true
    },
    {
      "inputs": [
        {
          "internalType": "uint256",
          "name": "_prescriptionId",
          "type": "uint256"
        }
      ],
      "name": "getPrescription",
      "outputs": [
        {
          "components": [
            {
              "internalType": "string",
              "name": "doctorUsername",
              "type": "string"
            },
            {
              "internalType": "string",
              "name": "patientUsername",
              "type": "string"
            },
            {
              "internalType": "string",
              "name": "medication",
              "type": "string"
            },
            {
              "internalType": "string",
              "name": "instructions",
              "type": "string"
            },
            {
              "internalType": "bool",
              "name": "isDeleted",
              "type": "bool"
            },
            {
              "internalType": "bool",
              "name": "paidStatus",
              "type": "bool"
            },
            {
              "internalType": "bool",
              "name": "reimbursementStatus",
              "type": "bool"
            }
          ],
          "internalType": "struct PrescriptionContract.Prescription",
          "name": "",
          "type": "tuple"
        }
      ],
      "stateMutability": "view",
      "type": "function",
      "constant": true
    }
  ],
  "bytecode": "0x608060405234801561001057600080fd5b50604051610d4f380380610d4f8339818101604052810190610032919061011c565b806000806101000a81548173ffffffffffffffffffffffffffffffffffffffff021916908373ffffffffffffffffffffffffffffffffffffffff16021790555080600160006101000a81548173ffffffffffffffffffffffffffffffffffffffff021916908373ffffffffffffffffffffffffffffffffffffffff16021790555050610149565b600080fd5b600073ffffffffffffffffffffffffffffffffffffffff82169050919050565b60006100e9826100be565b9050919050565b6100f9816100de565b811461010457600080fd5b50565b600081519050610116816100f0565b92915050565b600060208284031215610132576101316100b9565b5b600061014084828501610107565b91505092915050565b610bf7806101586000396000f3fe608060405234801561001057600080fd5b50600436106100415760003560e01c806318c3a3ac146100465780636f16af10146100765780638acabae3146100a6575b600080fd5b610060600480360381019061005b91906103df565b6100c4565b60405161006d9190610635565b60405180910390f35b610090600480360381019061008b919061068d565b61016e565b60405161009d919061076b565b60405180910390f35b6100ae61021e565b6040516100bb91906107ce565b60405180910390f35b6060600160009054906101000a900473ffffffffffffffffffffffffffffffffffffffff1673ffffffffffffffffffffffffffffffffffffffff16637d29ee3d836040518263ffffffff1660e01b81526004016101219190610833565b600060405180830381865afa15801561013e573d6000803e3d6000fd5b505050506040513d6000823e3d601f19601f820116820180604052508101906101679190610b05565b9050919050565b610176610242565b600160009054906101000a900473ffffffffffffffffffffffffffffffffffffffff1673ffffffffffffffffffffffffffffffffffffffff16638b8a1619836040518263ffffffff1660e01b81526004016101d19190610b5d565b600060405180830381865afa1580156101ee573d6000803e3d6000fd5b505050506040513d6000823e3d601f19601f820116820180604052508101906102179190610b78565b9050919050565b60008054906101000a900473ffffffffffffffffffffffffffffffffffffffff1681565b6040518060e00160405280606081526020016060815260200160608152602001606081526020016000151581526020016000151581526020016000151581525090565b6000604051905090565b600080fd5b600080fd5b600080fd5b600080fd5b6000601f19601f8301169050919050565b7f4e487b7100000000000000000000000000000000000000000000000000000000600052604160045260246000fd5b6102ec826102a3565b810181811067ffffffffffffffff8211171561030b5761030a6102b4565b5b80604052505050565b600061031e610285565b905061032a82826102e3565b919050565b600067ffffffffffffffff82111561034a576103496102b4565b5b610353826102a3565b9050602081019050919050565b82818337600083830152505050565b600061038261037d8461032f565b610314565b90508281526020810184848401111561039e5761039d61029e565b5b6103a9848285610360565b509392505050565b600082601f8301126103c6576103c5610299565b5b81356103d684826020860161036f565b91505092915050565b6000602082840312156103f5576103f461028f565b5b600082013567ffffffffffffffff81111561041357610412610294565b5b61041f848285016103b1565b91505092915050565b600081519050919050565b600082825260208201905092915050565b6000819050602082019050919050565b600081519050919050565b600082825260208201905092915050565b60005b8381101561048e578082015181840152602081019050610473565b60008484015250505050565b60006104a582610454565b6104af818561045f565b93506104bf818560208601610470565b6104c8816102a3565b840191505092915050565b60008115159050919050565b6104e8816104d3565b82525050565b600060e083016000830151848203600086015261050b828261049a565b91505060208301518482036020860152610525828261049a565b9150506040830151848203604086015261053f828261049a565b91505060608301518482036060860152610559828261049a565b915050608083015161056e60808601826104df565b5060a083015161058160a08601826104df565b5060c083015161059460c08601826104df565b508091505092915050565b60006105ab83836104ee565b905092915050565b6000602082019050919050565b60006105cb82610428565b6105d58185610433565b9350836020820285016105e785610444565b8060005b858110156106235784840389528151610604858261059f565b945061060f836105b3565b925060208a019950506001810190506105eb565b50829750879550505050505092915050565b6000602082019050818103600083015261064f81846105c0565b905092915050565b6000819050919050565b61066a81610657565b811461067557600080fd5b50565b60008135905061068781610661565b92915050565b6000602082840312156106a3576106a261028f565b5b60006106b184828501610678565b91505092915050565b600060e08301600083015184820360008601526106d7828261049a565b915050602083015184820360208601526106f1828261049a565b9150506040830151848203604086015261070b828261049a565b91505060608301518482036060860152610725828261049a565b915050608083015161073a60808601826104df565b5060a083015161074d60a08601826104df565b5060c083015161076060c08601826104df565b508091505092915050565b6000602082019050818103600083015261078581846106ba565b905092915050565b600073ffffffffffffffffffffffffffffffffffffffff82169050919050565b60006107b88261078d565b9050919050565b6107c8816107ad565b82525050565b60006020820190506107e360008301846107bf565b92915050565b600082825260208201905092915050565b600061080582610454565b61080f81856107e9565b935061081f818560208601610470565b610828816102a3565b840191505092915050565b6000602082019050818103600083015261084d81846107fa565b905092915050565b600067ffffffffffffffff8211156108705761086f6102b4565b5b602082029050602081019050919050565b600080fd5b600080fd5b600080fd5b60006108a361089e8461032f565b610314565b9050828152602081018484840111156108bf576108be61029e565b5b6108ca848285610470565b509392505050565b600082601f8301126108e7576108e6610299565b5b81516108f7848260208601610890565b91505092915050565b610909816104d3565b811461091457600080fd5b50565b60008151905061092681610900565b92915050565b600060e0828403121561094257610941610886565b5b61094c60e0610314565b9050600082015167ffffffffffffffff81111561096c5761096b61088b565b5b610978848285016108d2565b600083015250602082015167ffffffffffffffff81111561099c5761099b61088b565b5b6109a8848285016108d2565b602083015250604082015167ffffffffffffffff8111156109cc576109cb61088b565b5b6109d8848285016108d2565b604083015250606082015167ffffffffffffffff8111156109fc576109fb61088b565b5b610a08848285016108d2565b6060830152506080610a1c84828501610917565b60808301525060a0610a3084828501610917565b60a08301525060c0610a4484828501610917565b60c08301525092915050565b6000610a63610a5e84610855565b610314565b90508083825260208201905060208402830185811115610a8657610a85610881565b5b835b81811015610acd57805167ffffffffffffffff811115610aab57610aaa610299565b5b808601610ab8898261092c565b85526020850194505050602081019050610a88565b5050509392505050565b600082601f830112610aec57610aeb610299565b5b8151610afc848260208601610a50565b91505092915050565b600060208284031215610b1b57610b1a61028f565b5b600082015167ffffffffffffffff811115610b3957610b38610294565b5b610b4584828501610ad7565b91505092915050565b610b5781610657565b82525050565b6000602082019050610b726000830184610b4e565b92915050565b600060208284031215610b8e57610b8d61028f565b5b600082015167ffffffffffffffff811115610bac57610bab610294565b5b610bb88482850161092c565b9150509291505056fea2646970667358221220d304e31c53b95e6e8b2f1b250e8f8b01a4e94625f0122e5d33606bb9b0a6b56464736f6c63430008110033",
  "immutableReferences": {},
  "source": "// SPDX-License-Identifier: GPL-3.0\r\npragma solidity >=0.7.0 <0.9.0;\r\n\r\nimport \"./prescription.sol\";\r\n\r\ncontract PatientContract {\r\n    address public prescriptionContractAddress;\r\n    PrescriptionContract prescriptionContract;\r\n\r\n    constructor(address _prescriptionContractAddress) {\r\n        prescriptionContractAddress = _prescriptionContractAddress;\r\n        prescriptionContract = PrescriptionContract(_prescriptionContractAddress);\r\n    }\r\n\r\n    // Function to get all prescriptions associated with a patient\r\n    function getPrescriptionsByPatient(string memory _patientUsername) public view returns (PrescriptionContract.Prescription[] memory) {\r\n        return prescriptionContract.getAllPrescriptionsForPatient(_patientUsername);\r\n    }\r\n    function getPrescription(uint _prescriptionId) public view returns (PrescriptionContract.Prescription memory) {\r\n        return prescriptionContract.getPrescriptionById(_prescriptionId);\r\n    }\r\n}",
  "sourcePath": "C:\\Users\\21697\\OneDrive\\Bureau\\ii E\\II 2-E\\PCD\\project\\project\\contracts\\patient.sol",
  "compiler": {
    "name": "solc",
    "version": "0.8.17+commit.8df45f5f.Emscripten.clang"
  },
  "schemaVersion": "3.4.16",
  "updatedAt": "2024-05-06T18:07:11.663Z",
  "networkType": "ethereum",
  "devdoc": {
    "kind": "dev",
    "methods": {},
    "version": 1
  },
  "userdoc": {
    "kind": "user",
    "methods": {},
    "version": 1
  }
}