{
  "contractName": "PatientContract",
  "abi": [
    {
      "inputs": [
        {
          "internalType": "address",
          "name": "_prescriptionContractAddress",
          "type": "address"
        }
      ],
      "stateMutability": "nonpayable",
      "type": "constructor"
    },
    {
      "inputs": [],
      "name": "prescriptionContractAddress",
      "outputs": [
        {
          "internalType": "address",
          "name": "",
          "type": "address"
        }
      ],
      "stateMutability": "view",
      "type": "function",
      "constant": true
    },
    {
      "inputs": [
        {
          "internalType": "string",
          "name": "_patientUsername",
          "type": "string"
        }
      ],
      "name": "getPrescriptionsByPatient",
      "outputs": [
        {
          "components": [
            {
              "internalType": "string",
              "name": "doctorUsername",
              "type": "string"
            },
            {
              "internalType": "string",
              "name": "patientUsername",
              "type": "string"
            },
            {
              "internalType": "string",
              "name": "medication",
              "type": "string"
            },
            {
              "internalType": "string",
              "name": "instructions",
              "type": "string"
            },
            {
              "internalType": "bool",
              "name": "isDeleted",
              "type": "bool"
            },
            {
              "internalType": "bool",
              "name": "paidStatus",
              "type": "bool"
            },
            {
              "internalType": "bool",
              "name": "reimbursementStatus",
              "type": "bool"
            }
          ],
          "internalType": "struct PrescriptionContract.Prescription[]",
          "name": "",
          "type": "tuple[]"
        }
      ],
      "stateMutability": "view",
      "type": "function",
      "constant": true
    }
  ],
  "bytecode": "0x608060405234801561001057600080fd5b50604051610a78380380610a788339818101604052810190610032919061011c565b806000806101000a81548173ffffffffffffffffffffffffffffffffffffffff021916908373ffffffffffffffffffffffffffffffffffffffff16021790555080600160006101000a81548173ffffffffffffffffffffffffffffffffffffffff021916908373ffffffffffffffffffffffffffffffffffffffff16021790555050610149565b600080fd5b600073ffffffffffffffffffffffffffffffffffffffff82169050919050565b60006100e9826100be565b9050919050565b6100f9816100de565b811461010457600080fd5b50565b600081519050610116816100f0565b92915050565b600060208284031215610132576101316100b9565b5b600061014084828501610107565b91505092915050565b610920806101586000396000f3fe608060405234801561001057600080fd5b50600436106100365760003560e01c806318c3a3ac1461003b5780638acabae31461006b575b600080fd5b610055600480360381019061005091906102b1565b610089565b6040516100629190610507565b60405180910390f35b610073610133565b604051610080919061056a565b60405180910390f35b6060600160009054906101000a900473ffffffffffffffffffffffffffffffffffffffff1673ffffffffffffffffffffffffffffffffffffffff16637d29ee3d836040518263ffffffff1660e01b81526004016100e691906105cf565b600060405180830381865afa158015610103573d6000803e3d6000fd5b505050506040513d6000823e3d601f19601f8201168201806040525081019061012c91906108a1565b9050919050565b60008054906101000a900473ffffffffffffffffffffffffffffffffffffffff1681565b6000604051905090565b600080fd5b600080fd5b600080fd5b600080fd5b6000601f19601f8301169050919050565b7f4e487b7100000000000000000000000000000000000000000000000000000000600052604160045260246000fd5b6101be82610175565b810181811067ffffffffffffffff821117156101dd576101dc610186565b5b80604052505050565b60006101f0610157565b90506101fc82826101b5565b919050565b600067ffffffffffffffff82111561021c5761021b610186565b5b61022582610175565b9050602081019050919050565b82818337600083830152505050565b600061025461024f84610201565b6101e6565b9050828152602081018484840111156102705761026f610170565b5b61027b848285610232565b509392505050565b600082601f8301126102985761029761016b565b5b81356102a8848260208601610241565b91505092915050565b6000602082840312156102c7576102c6610161565b5b600082013567ffffffffffffffff8111156102e5576102e4610166565b5b6102f184828501610283565b91505092915050565b600081519050919050565b600082825260208201905092915050565b6000819050602082019050919050565b600081519050919050565b600082825260208201905092915050565b60005b83811015610360578082015181840152602081019050610345565b60008484015250505050565b600061037782610326565b6103818185610331565b9350610391818560208601610342565b61039a81610175565b840191505092915050565b60008115159050919050565b6103ba816103a5565b82525050565b600060e08301600083015184820360008601526103dd828261036c565b915050602083015184820360208601526103f7828261036c565b91505060408301518482036040860152610411828261036c565b9150506060830151848203606086015261042b828261036c565b915050608083015161044060808601826103b1565b5060a083015161045360a08601826103b1565b5060c083015161046660c08601826103b1565b508091505092915050565b600061047d83836103c0565b905092915050565b6000602082019050919050565b600061049d826102fa565b6104a78185610305565b9350836020820285016104b985610316565b8060005b858110156104f557848403895281516104d68582610471565b94506104e183610485565b925060208a019950506001810190506104bd565b50829750879550505050505092915050565b600060208201905081810360008301526105218184610492565b905092915050565b600073ffffffffffffffffffffffffffffffffffffffff82169050919050565b600061055482610529565b9050919050565b61056481610549565b82525050565b600060208201905061057f600083018461055b565b92915050565b600082825260208201905092915050565b60006105a182610326565b6105ab8185610585565b93506105bb818560208601610342565b6105c481610175565b840191505092915050565b600060208201905081810360008301526105e98184610596565b905092915050565b600067ffffffffffffffff82111561060c5761060b610186565b5b602082029050602081019050919050565b600080fd5b600080fd5b600080fd5b600061063f61063a84610201565b6101e6565b90508281526020810184848401111561065b5761065a610170565b5b610666848285610342565b509392505050565b600082601f8301126106835761068261016b565b5b815161069384826020860161062c565b91505092915050565b6106a5816103a5565b81146106b057600080fd5b50565b6000815190506106c28161069c565b92915050565b600060e082840312156106de576106dd610622565b5b6106e860e06101e6565b9050600082015167ffffffffffffffff81111561070857610707610627565b5b6107148482850161066e565b600083015250602082015167ffffffffffffffff81111561073857610737610627565b5b6107448482850161066e565b602083015250604082015167ffffffffffffffff81111561076857610767610627565b5b6107748482850161066e565b604083015250606082015167ffffffffffffffff81111561079857610797610627565b5b6107a48482850161066e565b60608301525060806107b8848285016106b3565b60808301525060a06107cc848285016106b3565b60a08301525060c06107e0848285016106b3565b60c08301525092915050565b60006107ff6107fa846105f1565b6101e6565b905080838252602082019050602084028301858111156108225761082161061d565b5b835b8181101561086957805167ffffffffffffffff8111156108475761084661016b565b5b80860161085489826106c8565b85526020850194505050602081019050610824565b5050509392505050565b600082601f8301126108885761088761016b565b5b81516108988482602086016107ec565b91505092915050565b6000602082840312156108b7576108b6610161565b5b600082015167ffffffffffffffff8111156108d5576108d4610166565b5b6108e184828501610873565b9150509291505056fea264697066735822122088ce026af7116f9ca537ffe3b6744caf141bd1e184571dc48975b86b25be6f3364736f6c63430008110033",
  "immutableReferences": {},
  "source": "// SPDX-License-Identifier: GPL-3.0\r\npragma solidity >=0.7.0 <0.9.0;\r\n\r\nimport \"./prescription.sol\";\r\n\r\ncontract PatientContract {\r\n    address public prescriptionContractAddress;\r\n    PrescriptionContract prescriptionContract;\r\n\r\n    constructor(address _prescriptionContractAddress) {\r\n        prescriptionContractAddress = _prescriptionContractAddress;\r\n        prescriptionContract = PrescriptionContract(_prescriptionContractAddress);\r\n    }\r\n\r\n    // Function to get all prescriptions associated with a patient\r\n    function getPrescriptionsByPatient(string memory _patientUsername) public view returns (PrescriptionContract.Prescription[] memory) {\r\n        return prescriptionContract.getAllPrescriptionsForPatient(_patientUsername);\r\n    }\r\n}",
  "sourcePath": "C:\\Users\\21697\\OneDrive\\Bureau\\ii E\\II 2-E\\PCD\\project\\project\\contracts\\patient.sol",
  "compiler": {
    "name": "solc",
    "version": "0.8.17+commit.8df45f5f.Emscripten.clang"
  },
  "schemaVersion": "3.4.16",
  "updatedAt": "2024-05-03T17:30:18.473Z",
  "networkType": "ethereum",
  "devdoc": {
    "kind": "dev",
    "methods": {},
    "version": 1
  },
  "userdoc": {
    "kind": "user",
    "methods": {},
    "version": 1
  }
}