{
  "contractName": "PharmacyContract",
  "abi": [
    {
      "inputs": [
        {
          "internalType": "address",
          "name": "_prescriptionContractAddress",
          "type": "address"
        }
      ],
      "stateMutability": "nonpayable",
      "type": "constructor"
    },
    {
      "inputs": [],
      "name": "prescriptionContractAddress",
      "outputs": [
        {
          "internalType": "address",
          "name": "",
          "type": "address"
        }
      ],
      "stateMutability": "view",
      "type": "function",
      "constant": true
    },
    {
      "inputs": [
        {
          "internalType": "uint256",
          "name": "_prescriptionId",
          "type": "uint256"
        }
      ],
      "name": "verifyPrescriptionPayment",
      "outputs": [
        {
          "internalType": "bool",
          "name": "",
          "type": "bool"
        }
      ],
      "stateMutability": "view",
      "type": "function",
      "constant": true
    },
    {
      "inputs": [
        {
          "internalType": "uint256",
          "name": "_prescriptionId",
          "type": "uint256"
        }
      ],
      "name": "markPrescriptionPaid",
      "outputs": [],
      "stateMutability": "nonpayable",
      "type": "function"
    },
    {
      "inputs": [
        {
          "internalType": "uint256",
          "name": "_prescriptionId",
          "type": "uint256"
        }
      ],
      "name": "getPrescriptionMedication",
      "outputs": [
        {
          "internalType": "string",
          "name": "",
          "type": "string"
        }
      ],
      "stateMutability": "view",
      "type": "function",
      "constant": true
    },
    {
      "inputs": [
        {
          "internalType": "uint256",
          "name": "_prescriptionId",
          "type": "uint256"
        }
      ],
      "name": "getPrescriptionInstructions",
      "outputs": [
        {
          "internalType": "string",
          "name": "",
          "type": "string"
        }
      ],
      "stateMutability": "view",
      "type": "function",
      "constant": true
    }
  ],
  "bytecode": "0x608060405234801561001057600080fd5b5060405161090e38038061090e8339818101604052810190610032919061011c565b806000806101000a81548173ffffffffffffffffffffffffffffffffffffffff021916908373ffffffffffffffffffffffffffffffffffffffff16021790555080600160006101000a81548173ffffffffffffffffffffffffffffffffffffffff021916908373ffffffffffffffffffffffffffffffffffffffff16021790555050610149565b600080fd5b600073ffffffffffffffffffffffffffffffffffffffff82169050919050565b60006100e9826100be565b9050919050565b6100f9816100de565b811461010457600080fd5b50565b600081519050610116816100f0565b92915050565b600060208284031215610132576101316100b9565b5b600061014084828501610107565b91505092915050565b6107b6806101586000396000f3fe608060405234801561001057600080fd5b50600436106100575760003560e01c8063237c058b1461005c5780638acabae31461008c578063a5c15b16146100aa578063c2e71208146100da578063f5ab39131461010a575b600080fd5b6100766004803603810190610071919061041d565b610126565b6040516100839190610465565b60405180910390f35b6100946101cb565b6040516100a191906104c1565b60405180910390f35b6100c460048036038101906100bf919061041d565b6101ef565b6040516100d1919061056c565b60405180910390f35b6100f460048036038101906100ef919061041d565b610299565b604051610101919061056c565b60405180910390f35b610124600480360381019061011f919061041d565b610343565b005b6000600160009054906101000a900473ffffffffffffffffffffffffffffffffffffffff1673ffffffffffffffffffffffffffffffffffffffff16635908e44e836040518263ffffffff1660e01b8152600401610183919061059d565b602060405180830381865afa1580156101a0573d6000803e3d6000fd5b505050506040513d601f19601f820116820180604052508101906101c491906105e4565b9050919050565b60008054906101000a900473ffffffffffffffffffffffffffffffffffffffff1681565b6060600160009054906101000a900473ffffffffffffffffffffffffffffffffffffffff1673ffffffffffffffffffffffffffffffffffffffff1663a5c15b16836040518263ffffffff1660e01b815260040161024c919061059d565b600060405180830381865afa158015610269573d6000803e3d6000fd5b505050506040513d6000823e3d601f19601f820116820180604052508101906102929190610737565b9050919050565b6060600160009054906101000a900473ffffffffffffffffffffffffffffffffffffffff1673ffffffffffffffffffffffffffffffffffffffff1663c2e71208836040518263ffffffff1660e01b81526004016102f6919061059d565b600060405180830381865afa158015610313573d6000803e3d6000fd5b505050506040513d6000823e3d601f19601f8201168201806040525081019061033c9190610737565b9050919050565b600160009054906101000a900473ffffffffffffffffffffffffffffffffffffffff1673ffffffffffffffffffffffffffffffffffffffff1663f5ab3913826040518263ffffffff1660e01b815260040161039e919061059d565b600060405180830381600087803b1580156103b857600080fd5b505af11580156103cc573d6000803e3d6000fd5b5050505050565b6000604051905090565b600080fd5b600080fd5b6000819050919050565b6103fa816103e7565b811461040557600080fd5b50565b600081359050610417816103f1565b92915050565b600060208284031215610433576104326103dd565b5b600061044184828501610408565b91505092915050565b60008115159050919050565b61045f8161044a565b82525050565b600060208201905061047a6000830184610456565b92915050565b600073ffffffffffffffffffffffffffffffffffffffff82169050919050565b60006104ab82610480565b9050919050565b6104bb816104a0565b82525050565b60006020820190506104d660008301846104b2565b92915050565b600081519050919050565b600082825260208201905092915050565b60005b838110156105165780820151818401526020810190506104fb565b60008484015250505050565b6000601f19601f8301169050919050565b600061053e826104dc565b61054881856104e7565b93506105588185602086016104f8565b61056181610522565b840191505092915050565b600060208201905081810360008301526105868184610533565b905092915050565b610597816103e7565b82525050565b60006020820190506105b2600083018461058e565b92915050565b6105c18161044a565b81146105cc57600080fd5b50565b6000815190506105de816105b8565b92915050565b6000602082840312156105fa576105f96103dd565b5b6000610608848285016105cf565b91505092915050565b600080fd5b600080fd5b7f4e487b7100000000000000000000000000000000000000000000000000000000600052604160045260246000fd5b61065382610522565b810181811067ffffffffffffffff821117156106725761067161061b565b5b80604052505050565b60006106856103d3565b9050610691828261064a565b919050565b600067ffffffffffffffff8211156106b1576106b061061b565b5b6106ba82610522565b9050602081019050919050565b60006106da6106d584610696565b61067b565b9050828152602081018484840111156106f6576106f5610616565b5b6107018482856104f8565b509392505050565b600082601f83011261071e5761071d610611565b5b815161072e8482602086016106c7565b91505092915050565b60006020828403121561074d5761074c6103dd565b5b600082015167ffffffffffffffff81111561076b5761076a6103e2565b5b61077784828501610709565b9150509291505056fea2646970667358221220ffacd2545cef6db76e578dbf103b50a0759141125861c9eddd6d5628fa6b6d8f64736f6c63430008110033",
  "immutableReferences": {},
  "source": "// SPDX-License-Identifier: GPL-3.0\r\npragma solidity >=0.7.0 <0.9.0;\r\n\r\nimport \"./prescription.sol\";\r\n\r\ncontract PharmacyContract {\r\n    address public prescriptionContractAddress;\r\n    PrescriptionContract prescriptionContract;\r\n\r\n    constructor(address _prescriptionContractAddress) {\r\n        prescriptionContractAddress = _prescriptionContractAddress;\r\n        prescriptionContract = PrescriptionContract(_prescriptionContractAddress);\r\n    }\r\n\r\n    function verifyPrescriptionPayment(uint _prescriptionId) public view returns (bool) {\r\n        return prescriptionContract.getPrescriptionPaidStatus(_prescriptionId);\r\n    }\r\n\r\n    function markPrescriptionPaid(uint _prescriptionId) public {\r\n        prescriptionContract.markPrescriptionPaid(_prescriptionId);\r\n    }\r\n\r\n    function getPrescriptionMedication(uint _prescriptionId) public view returns (string memory) {\r\n        return prescriptionContract.getPrescriptionMedication(_prescriptionId);\r\n    }\r\n\r\n    function getPrescriptionInstructions(uint _prescriptionId) public view returns (string memory) {\r\n        return prescriptionContract.getPrescriptionInstructions(_prescriptionId);\r\n    }\r\n}\r\n",
  "sourcePath": "C:\\Users\\21697\\OneDrive\\Bureau\\ii E\\II 2-E\\PCD\\project\\project\\contracts\\pharmacy.sol",
  "compiler": {
    "name": "solc",
    "version": "0.8.17+commit.8df45f5f.Emscripten.clang"
  },
  "schemaVersion": "3.4.16",
  "updatedAt": "2024-04-25T09:40:03.049Z",
  "networkType": "ethereum",
  "devdoc": {
    "kind": "dev",
    "methods": {},
    "version": 1
  },
  "userdoc": {
    "kind": "user",
    "methods": {},
    "version": 1
  }
}