{
  "contractName": "PharmacyContract",
  "abi": [
    {
      "inputs": [
        {
          "internalType": "address",
          "name": "_prescriptionContractAddress",
          "type": "address"
        }
      ],
      "stateMutability": "nonpayable",
      "type": "constructor"
    },
    {
      "inputs": [],
      "name": "prescriptionContractAddress",
      "outputs": [
        {
          "internalType": "address",
          "name": "",
          "type": "address"
        }
      ],
      "stateMutability": "view",
      "type": "function",
      "constant": true
    },
    {
      "inputs": [],
      "name": "getAllPrescriptions",
      "outputs": [
        {
          "components": [
            {
              "internalType": "string",
              "name": "doctorUsername",
              "type": "string"
            },
            {
              "internalType": "string",
              "name": "patientUsername",
              "type": "string"
            },
            {
              "internalType": "string",
              "name": "medication",
              "type": "string"
            },
            {
              "internalType": "string",
              "name": "instructions",
              "type": "string"
            },
            {
              "internalType": "bool",
              "name": "isDeleted",
              "type": "bool"
            },
            {
              "internalType": "bool",
              "name": "paidStatus",
              "type": "bool"
            },
            {
              "internalType": "bool",
              "name": "reimbursementStatus",
              "type": "bool"
            }
          ],
          "internalType": "struct PrescriptionContract.Prescription[]",
          "name": "",
          "type": "tuple[]"
        }
      ],
      "stateMutability": "view",
      "type": "function",
      "constant": true
    },
    {
      "inputs": [
        {
          "internalType": "uint256",
          "name": "_prescriptionId",
          "type": "uint256"
        }
      ],
      "name": "getPrescription",
      "outputs": [
        {
          "components": [
            {
              "internalType": "string",
              "name": "doctorUsername",
              "type": "string"
            },
            {
              "internalType": "string",
              "name": "patientUsername",
              "type": "string"
            },
            {
              "internalType": "string",
              "name": "medication",
              "type": "string"
            },
            {
              "internalType": "string",
              "name": "instructions",
              "type": "string"
            },
            {
              "internalType": "bool",
              "name": "isDeleted",
              "type": "bool"
            },
            {
              "internalType": "bool",
              "name": "paidStatus",
              "type": "bool"
            },
            {
              "internalType": "bool",
              "name": "reimbursementStatus",
              "type": "bool"
            }
          ],
          "internalType": "struct PrescriptionContract.Prescription",
          "name": "",
          "type": "tuple"
        }
      ],
      "stateMutability": "view",
      "type": "function",
      "constant": true
    },
    {
      "inputs": [
        {
          "internalType": "uint256",
          "name": "_prescriptionId",
          "type": "uint256"
        }
      ],
      "name": "markPrescriptionPaid",
      "outputs": [],
      "stateMutability": "nonpayable",
      "type": "function"
    },
    {
      "inputs": [
        {
          "internalType": "string",
          "name": "_patientUsername",
          "type": "string"
        }
      ],
      "name": "getAllPrescriptionsForPatient",
      "outputs": [
        {
          "components": [
            {
              "internalType": "string",
              "name": "doctorUsername",
              "type": "string"
            },
            {
              "internalType": "string",
              "name": "patientUsername",
              "type": "string"
            },
            {
              "internalType": "string",
              "name": "medication",
              "type": "string"
            },
            {
              "internalType": "string",
              "name": "instructions",
              "type": "string"
            },
            {
              "internalType": "bool",
              "name": "isDeleted",
              "type": "bool"
            },
            {
              "internalType": "bool",
              "name": "paidStatus",
              "type": "bool"
            },
            {
              "internalType": "bool",
              "name": "reimbursementStatus",
              "type": "bool"
            }
          ],
          "internalType": "struct PrescriptionContract.Prescription[]",
          "name": "",
          "type": "tuple[]"
        }
      ],
      "stateMutability": "view",
      "type": "function",
      "constant": true
    }
  ],
  "bytecode": "0x608060405234801561001057600080fd5b50604051610f72380380610f728339818101604052810190610032919061011c565b806000806101000a81548173ffffffffffffffffffffffffffffffffffffffff021916908373ffffffffffffffffffffffffffffffffffffffff16021790555080600160006101000a81548173ffffffffffffffffffffffffffffffffffffffff021916908373ffffffffffffffffffffffffffffffffffffffff16021790555050610149565b600080fd5b600073ffffffffffffffffffffffffffffffffffffffff82169050919050565b60006100e9826100be565b9050919050565b6100f9816100de565b811461010457600080fd5b50565b600081519050610116816100f0565b92915050565b600060208284031215610132576101316100b9565b5b600061014084828501610107565b91505092915050565b610e1a806101586000396000f3fe608060405234801561001057600080fd5b50600436106100575760003560e01c80630163e4f81461005c5780636f16af101461007a5780637d29ee3d146100aa5780638acabae3146100da578063f5ab3913146100f8575b600080fd5b610064610114565b60405161007191906106c6565b60405180910390f35b610094600480360381019061008f9190610732565b6101b1565b6040516100a19190610810565b60405180910390f35b6100c460048036038101906100bf9190610967565b610261565b6040516100d191906106c6565b60405180910390f35b6100e261030b565b6040516100ef91906109f1565b60405180910390f35b610112600480360381019061010d9190610732565b61032f565b005b6060600160009054906101000a900473ffffffffffffffffffffffffffffffffffffffff1673ffffffffffffffffffffffffffffffffffffffff16630163e4f86040518163ffffffff1660e01b8152600401600060405180830381865afa158015610183573d6000803e3d6000fd5b505050506040513d6000823e3d601f19601f820116820180604052508101906101ac9190610cbc565b905090565b6101b9610465565b600160009054906101000a900473ffffffffffffffffffffffffffffffffffffffff1673ffffffffffffffffffffffffffffffffffffffff16638b8a1619836040518263ffffffff1660e01b81526004016102149190610d14565b600060405180830381865afa158015610231573d6000803e3d6000fd5b505050506040513d6000823e3d601f19601f8201168201806040525081019061025a9190610d2f565b9050919050565b6060600160009054906101000a900473ffffffffffffffffffffffffffffffffffffffff1673ffffffffffffffffffffffffffffffffffffffff16637d29ee3d836040518263ffffffff1660e01b81526004016102be9190610dc2565b600060405180830381865afa1580156102db573d6000803e3d6000fd5b505050506040513d6000823e3d601f19601f820116820180604052508101906103049190610cbc565b9050919050565b60008054906101000a900473ffffffffffffffffffffffffffffffffffffffff1681565b6000600160009054906101000a900473ffffffffffffffffffffffffffffffffffffffff1673ffffffffffffffffffffffffffffffffffffffff16636f16af10836040518263ffffffff1660e01b815260040161038c9190610d14565b600060405180830381865afa1580156103a9573d6000803e3d6000fd5b505050506040513d6000823e3d601f19601f820116820180604052508101906103d29190610d2f565b9050600160009054906101000a900473ffffffffffffffffffffffffffffffffffffffff1673ffffffffffffffffffffffffffffffffffffffff1663f5ab3913836040518263ffffffff1660e01b815260040161042f9190610d14565b600060405180830381600087803b15801561044957600080fd5b505af115801561045d573d6000803e3d6000fd5b505050505050565b6040518060e00160405280606081526020016060815260200160608152602001606081526020016000151581526020016000151581526020016000151581525090565b600081519050919050565b600082825260208201905092915050565b6000819050602082019050919050565b600081519050919050565b600082825260208201905092915050565b60005b8381101561050e5780820151818401526020810190506104f3565b60008484015250505050565b6000601f19601f8301169050919050565b6000610536826104d4565b61054081856104df565b93506105508185602086016104f0565b6105598161051a565b840191505092915050565b60008115159050919050565b61057981610564565b82525050565b600060e083016000830151848203600086015261059c828261052b565b915050602083015184820360208601526105b6828261052b565b915050604083015184820360408601526105d0828261052b565b915050606083015184820360608601526105ea828261052b565b91505060808301516105ff6080860182610570565b5060a083015161061260a0860182610570565b5060c083015161062560c0860182610570565b508091505092915050565b600061063c838361057f565b905092915050565b6000602082019050919050565b600061065c826104a8565b61066681856104b3565b935083602082028501610678856104c4565b8060005b858110156106b457848403895281516106958582610630565b94506106a083610644565b925060208a0199505060018101905061067c565b50829750879550505050505092915050565b600060208201905081810360008301526106e08184610651565b905092915050565b6000604051905090565b600080fd5b600080fd5b6000819050919050565b61070f816106fc565b811461071a57600080fd5b50565b60008135905061072c81610706565b92915050565b600060208284031215610748576107476106f2565b5b60006107568482850161071d565b91505092915050565b600060e083016000830151848203600086015261077c828261052b565b91505060208301518482036020860152610796828261052b565b915050604083015184820360408601526107b0828261052b565b915050606083015184820360608601526107ca828261052b565b91505060808301516107df6080860182610570565b5060a08301516107f260a0860182610570565b5060c083015161080560c0860182610570565b508091505092915050565b6000602082019050818103600083015261082a818461075f565b905092915050565b600080fd5b600080fd5b7f4e487b7100000000000000000000000000000000000000000000000000000000600052604160045260246000fd5b6108748261051a565b810181811067ffffffffffffffff821117156108935761089261083c565b5b80604052505050565b60006108a66106e8565b90506108b2828261086b565b919050565b600067ffffffffffffffff8211156108d2576108d161083c565b5b6108db8261051a565b9050602081019050919050565b82818337600083830152505050565b600061090a610905846108b7565b61089c565b90508281526020810184848401111561092657610925610837565b5b6109318482856108e8565b509392505050565b600082601f83011261094e5761094d610832565b5b813561095e8482602086016108f7565b91505092915050565b60006020828403121561097d5761097c6106f2565b5b600082013567ffffffffffffffff81111561099b5761099a6106f7565b5b6109a784828501610939565b91505092915050565b600073ffffffffffffffffffffffffffffffffffffffff82169050919050565b60006109db826109b0565b9050919050565b6109eb816109d0565b82525050565b6000602082019050610a0660008301846109e2565b92915050565b600067ffffffffffffffff821115610a2757610a2661083c565b5b602082029050602081019050919050565b600080fd5b600080fd5b600080fd5b6000610a5a610a55846108b7565b61089c565b905082815260208101848484011115610a7657610a75610837565b5b610a818482856104f0565b509392505050565b600082601f830112610a9e57610a9d610832565b5b8151610aae848260208601610a47565b91505092915050565b610ac081610564565b8114610acb57600080fd5b50565b600081519050610add81610ab7565b92915050565b600060e08284031215610af957610af8610a3d565b5b610b0360e061089c565b9050600082015167ffffffffffffffff811115610b2357610b22610a42565b5b610b2f84828501610a89565b600083015250602082015167ffffffffffffffff811115610b5357610b52610a42565b5b610b5f84828501610a89565b602083015250604082015167ffffffffffffffff811115610b8357610b82610a42565b5b610b8f84828501610a89565b604083015250606082015167ffffffffffffffff811115610bb357610bb2610a42565b5b610bbf84828501610a89565b6060830152506080610bd384828501610ace565b60808301525060a0610be784828501610ace565b60a08301525060c0610bfb84828501610ace565b60c08301525092915050565b6000610c1a610c1584610a0c565b61089c565b90508083825260208201905060208402830185811115610c3d57610c3c610a38565b5b835b81811015610c8457805167ffffffffffffffff811115610c6257610c61610832565b5b808601610c6f8982610ae3565b85526020850194505050602081019050610c3f565b5050509392505050565b600082601f830112610ca357610ca2610832565b5b8151610cb3848260208601610c07565b91505092915050565b600060208284031215610cd257610cd16106f2565b5b600082015167ffffffffffffffff811115610cf057610cef6106f7565b5b610cfc84828501610c8e565b91505092915050565b610d0e816106fc565b82525050565b6000602082019050610d296000830184610d05565b92915050565b600060208284031215610d4557610d446106f2565b5b600082015167ffffffffffffffff811115610d6357610d626106f7565b5b610d6f84828501610ae3565b91505092915050565b600082825260208201905092915050565b6000610d94826104d4565b610d9e8185610d78565b9350610dae8185602086016104f0565b610db78161051a565b840191505092915050565b60006020820190508181036000830152610ddc8184610d89565b90509291505056fea26469706673582212202b3c6439bb3a65a4dc9bc450d27cf711d84c894d16a59e6b660fdc465ffab4f964736f6c63430008110033",
  "immutableReferences": {},
  "source": "// SPDX-License-Identifier: GPL-3.0\r\npragma solidity >=0.7.0 <0.9.0;\r\n\r\nimport \"./prescription.sol\";\r\n\r\ncontract PharmacyContract {\r\n    address public prescriptionContractAddress;\r\n    PrescriptionContract prescriptionContract;\r\n\r\n    // Function to get all prescriptions\r\n    function getAllPrescriptions() public view returns (PrescriptionContract.Prescription[] memory) {\r\n        return prescriptionContract.getAllPrescriptions();\r\n    }\r\n    function getPrescription(uint _prescriptionId) public view returns (PrescriptionContract.Prescription memory) {\r\n        return prescriptionContract.getPrescriptionById(_prescriptionId);\r\n    }\r\n\r\n    constructor(address _prescriptionContractAddress) {\r\n        prescriptionContractAddress = _prescriptionContractAddress;\r\n        prescriptionContract = PrescriptionContract(_prescriptionContractAddress);\r\n    }\r\n\r\n   \r\n\r\n    function markPrescriptionPaid(uint _prescriptionId) public {\r\n        PrescriptionContract.Prescription memory prescription = prescriptionContract.getPrescription(_prescriptionId);\r\n        prescriptionContract.markPrescriptionPaid(_prescriptionId);\r\n    }\r\n\r\n   function getAllPrescriptionsForPatient(string memory _patientUsername) public view returns (PrescriptionContract.Prescription[] memory) {\r\n        return prescriptionContract.getAllPrescriptionsForPatient(_patientUsername);\r\n    }\r\n}\r\n",
  "sourcePath": "C:\\Users\\21697\\OneDrive\\Bureau\\ii E\\II 2-E\\PCD\\project\\project\\contracts\\pharmacy.sol",
  "compiler": {
    "name": "solc",
    "version": "0.8.17+commit.8df45f5f.Emscripten.clang"
  },
  "schemaVersion": "3.4.16",
  "updatedAt": "2024-05-06T18:07:11.478Z",
  "networkType": "ethereum",
  "devdoc": {
    "kind": "dev",
    "methods": {},
    "version": 1
  },
  "userdoc": {
    "kind": "user",
    "methods": {},
    "version": 1
  }
}