{
  "contractName": "PharmacyContract",
  "abi": [
    {
      "inputs": [
        {
          "internalType": "address",
          "name": "_prescriptionContractAddress",
          "type": "address"
        }
      ],
      "stateMutability": "nonpayable",
      "type": "constructor"
    },
    {
      "inputs": [],
      "name": "prescriptionContractAddress",
      "outputs": [
        {
          "internalType": "address",
          "name": "",
          "type": "address"
        }
      ],
      "stateMutability": "view",
      "type": "function",
      "constant": true
    },
    {
      "inputs": [],
      "name": "getAllPrescriptions",
      "outputs": [
        {
          "components": [
            {
              "internalType": "string",
              "name": "doctorUsername",
              "type": "string"
            },
            {
              "internalType": "string",
              "name": "patientUsername",
              "type": "string"
            },
            {
              "internalType": "string",
              "name": "medication",
              "type": "string"
            },
            {
              "internalType": "string",
              "name": "instructions",
              "type": "string"
            },
            {
              "internalType": "bool",
              "name": "isDeleted",
              "type": "bool"
            },
            {
              "internalType": "bool",
              "name": "paidStatus",
              "type": "bool"
            },
            {
              "internalType": "bool",
              "name": "reimbursementStatus",
              "type": "bool"
            }
          ],
          "internalType": "struct PrescriptionContract.Prescription[]",
          "name": "",
          "type": "tuple[]"
        }
      ],
      "stateMutability": "view",
      "type": "function",
      "constant": true
    },
    {
      "inputs": [
        {
          "internalType": "uint256",
          "name": "_prescriptionId",
          "type": "uint256"
        }
      ],
      "name": "markPrescriptionPaid",
      "outputs": [],
      "stateMutability": "nonpayable",
      "type": "function"
    }
  ],
  "bytecode": "0x608060405234801561001057600080fd5b50604051610d1d380380610d1d8339818101604052810190610032919061011c565b806000806101000a81548173ffffffffffffffffffffffffffffffffffffffff021916908373ffffffffffffffffffffffffffffffffffffffff16021790555080600160006101000a81548173ffffffffffffffffffffffffffffffffffffffff021916908373ffffffffffffffffffffffffffffffffffffffff16021790555050610149565b600080fd5b600073ffffffffffffffffffffffffffffffffffffffff82169050919050565b60006100e9826100be565b9050919050565b6100f9816100de565b811461010457600080fd5b50565b600081519050610116816100f0565b92915050565b600060208284031215610132576101316100b9565b5b600061014084828501610107565b91505092915050565b610bc5806101586000396000f3fe608060405234801561001057600080fd5b50600436106100415760003560e01c80630163e4f8146100465780638acabae314610064578063f5ab391314610082575b600080fd5b61004e61009e565b60405161005b9190610545565b60405180910390f35b61006c61013b565b60405161007991906105a8565b60405180910390f35b61009c6004803603810190610097919061060d565b61015f565b005b6060600160009054906101000a900473ffffffffffffffffffffffffffffffffffffffff1673ffffffffffffffffffffffffffffffffffffffff16630163e4f86040518163ffffffff1660e01b8152600401600060405180830381865afa15801561010d573d6000803e3d6000fd5b505050506040513d6000823e3d601f19601f8201168201806040525081019061013691906109a0565b905090565b60008054906101000a900473ffffffffffffffffffffffffffffffffffffffff1681565b6000600160009054906101000a900473ffffffffffffffffffffffffffffffffffffffff1673ffffffffffffffffffffffffffffffffffffffff16636f16af10836040518263ffffffff1660e01b81526004016101bc91906109f8565b600060405180830381865afa1580156101d9573d6000803e3d6000fd5b505050506040513d6000823e3d601f19601f820116820180604052508101906102029190610a13565b9050336040516020016102159190610aa4565b6040516020818303038152906040528051906020012081602001516040516020016102409190610afb565b6040516020818303038152906040528051906020012014610296576040517f08c379a000000000000000000000000000000000000000000000000000000000815260040161028d90610b6f565b60405180910390fd5b600160009054906101000a900473ffffffffffffffffffffffffffffffffffffffff1673ffffffffffffffffffffffffffffffffffffffff1663f5ab3913836040518263ffffffff1660e01b81526004016102f191906109f8565b600060405180830381600087803b15801561030b57600080fd5b505af115801561031f573d6000803e3d6000fd5b505050505050565b600081519050919050565b600082825260208201905092915050565b6000819050602082019050919050565b600081519050919050565b600082825260208201905092915050565b60005b8381101561038d578082015181840152602081019050610372565b60008484015250505050565b6000601f19601f8301169050919050565b60006103b582610353565b6103bf818561035e565b93506103cf81856020860161036f565b6103d881610399565b840191505092915050565b60008115159050919050565b6103f8816103e3565b82525050565b600060e083016000830151848203600086015261041b82826103aa565b9150506020830151848203602086015261043582826103aa565b9150506040830151848203604086015261044f82826103aa565b9150506060830151848203606086015261046982826103aa565b915050608083015161047e60808601826103ef565b5060a083015161049160a08601826103ef565b5060c08301516104a460c08601826103ef565b508091505092915050565b60006104bb83836103fe565b905092915050565b6000602082019050919050565b60006104db82610327565b6104e58185610332565b9350836020820285016104f785610343565b8060005b85811015610533578484038952815161051485826104af565b945061051f836104c3565b925060208a019950506001810190506104fb565b50829750879550505050505092915050565b6000602082019050818103600083015261055f81846104d0565b905092915050565b600073ffffffffffffffffffffffffffffffffffffffff82169050919050565b600061059282610567565b9050919050565b6105a281610587565b82525050565b60006020820190506105bd6000830184610599565b92915050565b6000604051905090565b600080fd5b600080fd5b6000819050919050565b6105ea816105d7565b81146105f557600080fd5b50565b600081359050610607816105e1565b92915050565b600060208284031215610623576106226105cd565b5b6000610631848285016105f8565b91505092915050565b600080fd5b7f4e487b7100000000000000000000000000000000000000000000000000000000600052604160045260246000fd5b61067782610399565b810181811067ffffffffffffffff821117156106965761069561063f565b5b80604052505050565b60006106a96105c3565b90506106b5828261066e565b919050565b600067ffffffffffffffff8211156106d5576106d461063f565b5b602082029050602081019050919050565b600080fd5b600080fd5b600080fd5b600080fd5b600067ffffffffffffffff8211156107155761071461063f565b5b61071e82610399565b9050602081019050919050565b600061073e610739846106fa565b61069f565b90508281526020810184848401111561075a576107596106f5565b5b61076584828561036f565b509392505050565b600082601f8301126107825761078161063a565b5b815161079284826020860161072b565b91505092915050565b6107a4816103e3565b81146107af57600080fd5b50565b6000815190506107c18161079b565b92915050565b600060e082840312156107dd576107dc6106eb565b5b6107e760e061069f565b9050600082015167ffffffffffffffff811115610807576108066106f0565b5b6108138482850161076d565b600083015250602082015167ffffffffffffffff811115610837576108366106f0565b5b6108438482850161076d565b602083015250604082015167ffffffffffffffff811115610867576108666106f0565b5b6108738482850161076d565b604083015250606082015167ffffffffffffffff811115610897576108966106f0565b5b6108a38482850161076d565b60608301525060806108b7848285016107b2565b60808301525060a06108cb848285016107b2565b60a08301525060c06108df848285016107b2565b60c08301525092915050565b60006108fe6108f9846106ba565b61069f565b90508083825260208201905060208402830185811115610921576109206106e6565b5b835b8181101561096857805167ffffffffffffffff8111156109465761094561063a565b5b80860161095389826107c7565b85526020850194505050602081019050610923565b5050509392505050565b600082601f8301126109875761098661063a565b5b81516109978482602086016108eb565b91505092915050565b6000602082840312156109b6576109b56105cd565b5b600082015167ffffffffffffffff8111156109d4576109d36105d2565b5b6109e084828501610972565b91505092915050565b6109f2816105d7565b82525050565b6000602082019050610a0d60008301846109e9565b92915050565b600060208284031215610a2957610a286105cd565b5b600082015167ffffffffffffffff811115610a4757610a466105d2565b5b610a53848285016107c7565b91505092915050565b60008160601b9050919050565b6000610a7482610a5c565b9050919050565b6000610a8682610a69565b9050919050565b610a9e610a9982610587565b610a7b565b82525050565b6000610ab08284610a8d565b60148201915081905092915050565b600081905092915050565b6000610ad582610353565b610adf8185610abf565b9350610aef81856020860161036f565b80840191505092915050565b6000610b078284610aca565b915081905092915050565b600082825260208201905092915050565b7f556e617574686f72697a65640000000000000000000000000000000000000000600082015250565b6000610b59600c83610b12565b9150610b6482610b23565b602082019050919050565b60006020820190508181036000830152610b8881610b4c565b905091905056fea26469706673582212205352dc0958dfbcc8d1e89b51f53f68463b1a7a680c92f5852688ebc886a15e4064736f6c63430008110033",
  "immutableReferences": {},
  "source": "// SPDX-License-Identifier: GPL-3.0\r\npragma solidity >=0.7.0 <0.9.0;\r\n\r\nimport \"./prescription.sol\";\r\n\r\ncontract PharmacyContract {\r\n    address public prescriptionContractAddress;\r\n    PrescriptionContract prescriptionContract;\r\n\r\n    // Function to get all prescriptions\r\n    function getAllPrescriptions() public view returns (PrescriptionContract.Prescription[] memory) {\r\n        return prescriptionContract.getAllPrescriptions();\r\n    }\r\n\r\n    constructor(address _prescriptionContractAddress) {\r\n        prescriptionContractAddress = _prescriptionContractAddress;\r\n        prescriptionContract = PrescriptionContract(_prescriptionContractAddress);\r\n    }\r\n\r\n   \r\n\r\n    function markPrescriptionPaid(uint _prescriptionId) public {\r\n        PrescriptionContract.Prescription memory prescription = prescriptionContract.getPrescription(_prescriptionId);\r\n        require(keccak256(abi.encodePacked(prescription.patientUsername)) == keccak256(abi.encodePacked(msg.sender)), \"Unauthorized\");\r\n        prescriptionContract.markPrescriptionPaid(_prescriptionId);\r\n    }\r\n\r\n   \r\n}\r\n",
  "sourcePath": "C:\\Users\\21697\\OneDrive\\Bureau\\ii E\\II 2-E\\PCD\\project\\project\\contracts\\pharmacy.sol",
  "compiler": {
    "name": "solc",
    "version": "0.8.17+commit.8df45f5f.Emscripten.clang"
  },
  "schemaVersion": "3.4.16",
  "updatedAt": "2024-05-03T17:30:18.332Z",
  "networkType": "ethereum",
  "devdoc": {
    "kind": "dev",
    "methods": {},
    "version": 1
  },
  "userdoc": {
    "kind": "user",
    "methods": {},
    "version": 1
  }
}