{
  "contractName": "PrescriptionContract",
  "abi": [
    {
      "anonymous": false,
      "inputs": [
        {
          "indexed": false,
          "internalType": "uint256",
          "name": "prescriptionId",
          "type": "uint256"
        },
        {
          "indexed": false,
          "internalType": "string",
          "name": "doctorUsername",
          "type": "string"
        },
        {
          "indexed": false,
          "internalType": "string",
          "name": "patientUsername",
          "type": "string"
        },
        {
          "indexed": false,
          "internalType": "string",
          "name": "medication",
          "type": "string"
        },
        {
          "indexed": false,
          "internalType": "string",
          "name": "instructions",
          "type": "string"
        }
      ],
      "name": "PrescriptionCreated",
      "type": "event"
    },
    {
      "anonymous": false,
      "inputs": [
        {
          "indexed": false,
          "internalType": "uint256",
          "name": "prescriptionId",
          "type": "uint256"
        }
      ],
      "name": "PrescriptionDeleted",
      "type": "event"
    },
    {
      "anonymous": false,
      "inputs": [
        {
          "indexed": false,
          "internalType": "uint256",
          "name": "prescriptionId",
          "type": "uint256"
        },
        {
          "indexed": false,
          "internalType": "string",
          "name": "medication",
          "type": "string"
        },
        {
          "indexed": false,
          "internalType": "string",
          "name": "instructions",
          "type": "string"
        }
      ],
      "name": "PrescriptionModified",
      "type": "event"
    },
    {
      "inputs": [],
      "name": "prescriptionCount",
      "outputs": [
        {
          "internalType": "uint256",
          "name": "",
          "type": "uint256"
        }
      ],
      "stateMutability": "view",
      "type": "function",
      "constant": true
    },
    {
      "inputs": [
        {
          "internalType": "uint256",
          "name": "",
          "type": "uint256"
        }
      ],
      "name": "prescriptions",
      "outputs": [
        {
          "internalType": "string",
          "name": "doctorUsername",
          "type": "string"
        },
        {
          "internalType": "string",
          "name": "patientUsername",
          "type": "string"
        },
        {
          "internalType": "string",
          "name": "medication",
          "type": "string"
        },
        {
          "internalType": "string",
          "name": "instructions",
          "type": "string"
        },
        {
          "internalType": "bool",
          "name": "isDeleted",
          "type": "bool"
        },
        {
          "internalType": "bool",
          "name": "paidStatus",
          "type": "bool"
        },
        {
          "internalType": "bool",
          "name": "reimbursementStatus",
          "type": "bool"
        }
      ],
      "stateMutability": "view",
      "type": "function",
      "constant": true
    },
    {
      "inputs": [
        {
          "internalType": "string",
          "name": "",
          "type": "string"
        }
      ],
      "name": "users",
      "outputs": [
        {
          "internalType": "string",
          "name": "username",
          "type": "string"
        },
        {
          "internalType": "string",
          "name": "role",
          "type": "string"
        }
      ],
      "stateMutability": "view",
      "type": "function",
      "constant": true
    },
    {
      "inputs": [
        {
          "internalType": "uint256",
          "name": "_prescriptionId",
          "type": "uint256"
        }
      ],
      "name": "getPrescription",
      "outputs": [
        {
          "components": [
            {
              "internalType": "string",
              "name": "doctorUsername",
              "type": "string"
            },
            {
              "internalType": "string",
              "name": "patientUsername",
              "type": "string"
            },
            {
              "internalType": "string",
              "name": "medication",
              "type": "string"
            },
            {
              "internalType": "string",
              "name": "instructions",
              "type": "string"
            },
            {
              "internalType": "bool",
              "name": "isDeleted",
              "type": "bool"
            },
            {
              "internalType": "bool",
              "name": "paidStatus",
              "type": "bool"
            },
            {
              "internalType": "bool",
              "name": "reimbursementStatus",
              "type": "bool"
            }
          ],
          "internalType": "struct PrescriptionContract.Prescription",
          "name": "",
          "type": "tuple"
        }
      ],
      "stateMutability": "view",
      "type": "function",
      "constant": true
    },
    {
      "inputs": [],
      "name": "getAllPrescriptions",
      "outputs": [
        {
          "components": [
            {
              "internalType": "string",
              "name": "doctorUsername",
              "type": "string"
            },
            {
              "internalType": "string",
              "name": "patientUsername",
              "type": "string"
            },
            {
              "internalType": "string",
              "name": "medication",
              "type": "string"
            },
            {
              "internalType": "string",
              "name": "instructions",
              "type": "string"
            },
            {
              "internalType": "bool",
              "name": "isDeleted",
              "type": "bool"
            },
            {
              "internalType": "bool",
              "name": "paidStatus",
              "type": "bool"
            },
            {
              "internalType": "bool",
              "name": "reimbursementStatus",
              "type": "bool"
            }
          ],
          "internalType": "struct PrescriptionContract.Prescription[]",
          "name": "",
          "type": "tuple[]"
        }
      ],
      "stateMutability": "view",
      "type": "function",
      "constant": true
    },
    {
      "inputs": [
        {
          "internalType": "uint256",
          "name": "_prescriptionId",
          "type": "uint256"
        }
      ],
      "name": "markPrescriptionPaid",
      "outputs": [],
      "stateMutability": "nonpayable",
      "type": "function"
    },
    {
      "inputs": [
        {
          "internalType": "uint256",
          "name": "_prescriptionId",
          "type": "uint256"
        }
      ],
      "name": "markPrescriptionReimbursed",
      "outputs": [],
      "stateMutability": "nonpayable",
      "type": "function"
    },
    {
      "inputs": [
        {
          "internalType": "string",
          "name": "_doctorUsername",
          "type": "string"
        },
        {
          "internalType": "string",
          "name": "_patientUsername",
          "type": "string"
        },
        {
          "internalType": "string",
          "name": "_medication",
          "type": "string"
        },
        {
          "internalType": "string",
          "name": "_instructions",
          "type": "string"
        }
      ],
      "name": "createPrescription",
      "outputs": [],
      "stateMutability": "nonpayable",
      "type": "function"
    },
    {
      "inputs": [
        {
          "internalType": "uint256",
          "name": "_prescriptionId",
          "type": "uint256"
        },
        {
          "internalType": "string",
          "name": "_medication",
          "type": "string"
        },
        {
          "internalType": "string",
          "name": "_instructions",
          "type": "string"
        }
      ],
      "name": "modifyPrescription",
      "outputs": [],
      "stateMutability": "nonpayable",
      "type": "function"
    },
    {
      "inputs": [
        {
          "internalType": "uint256",
          "name": "_prescriptionId",
          "type": "uint256"
        }
      ],
      "name": "deletePrescription",
      "outputs": [],
      "stateMutability": "nonpayable",
      "type": "function"
    },
    {
      "inputs": [
        {
          "internalType": "string",
          "name": "_patientUsername",
          "type": "string"
        }
      ],
      "name": "getAllPrescriptionsForPatient",
      "outputs": [
        {
          "components": [
            {
              "internalType": "string",
              "name": "doctorUsername",
              "type": "string"
            },
            {
              "internalType": "string",
              "name": "patientUsername",
              "type": "string"
            },
            {
              "internalType": "string",
              "name": "medication",
              "type": "string"
            },
            {
              "internalType": "string",
              "name": "instructions",
              "type": "string"
            },
            {
              "internalType": "bool",
              "name": "isDeleted",
              "type": "bool"
            },
            {
              "internalType": "bool",
              "name": "paidStatus",
              "type": "bool"
            },
            {
              "internalType": "bool",
              "name": "reimbursementStatus",
              "type": "bool"
            }
          ],
          "internalType": "struct PrescriptionContract.Prescription[]",
          "name": "",
          "type": "tuple[]"
        }
      ],
      "stateMutability": "view",
      "type": "function",
      "constant": true
    }
  ],
  "bytecode": "0x608060405234801561001057600080fd5b5061284b806100206000396000f3fe608060405234801561001057600080fd5b50600436106100a95760003560e01c80637d29ee3d116100715780637d29ee3d1461017f578063a97645fc146101af578063b6558498146101cb578063ba442b69146101e9578063f5ab391314610205578063ff21110714610221576100a9565b80630163e4f8146100ae5780630b57f181146100cc57806331dfc91b146100e8578063689e1c031461011e5780636f16af101461014f575b600080fd5b6100b661023d565b6040516100c391906118d2565b60405180910390f35b6100e660048036038101906100e19190611a73565b610595565b005b61010260048036038101906100fd9190611afe565b6106f3565b6040516101159796959493929190611b84565b60405180910390f35b61013860048036038101906101339190611c0f565b61097c565b604051610146929190611c58565b60405180910390f35b61016960048036038101906101649190611afe565b610ac6565b6040516101769190611d40565b60405180910390f35b61019960048036038101906101949190611c0f565b610d8b565b6040516101a691906118d2565b60405180910390f35b6101c960048036038101906101c49190611afe565b611160565b005b6101d36112b1565b6040516101e09190611d71565b60405180910390f35b61020360048036038101906101fe9190611d8c565b6112b7565b005b61021f600480360381019061021a9190611afe565b611421565b005b61023b60048036038101906102369190611afe565b611518565b005b6060600060015467ffffffffffffffff81111561025d5761025c611948565b5b60405190808252806020026020018201604052801561029657816020015b610283611671565b81526020019060019003908161027b5790505b50905060005b60015481101561058d576000808281526020019081526020016000206040518060e00160405290816000820180546102d390611e92565b80601f01602080910402602001604051908101604052809291908181526020018280546102ff90611e92565b801561034c5780601f106103215761010080835404028352916020019161034c565b820191906000526020600020905b81548152906001019060200180831161032f57829003601f168201915b5050505050815260200160018201805461036590611e92565b80601f016020809104026020016040519081016040528092919081815260200182805461039190611e92565b80156103de5780601f106103b3576101008083540402835291602001916103de565b820191906000526020600020905b8154815290600101906020018083116103c157829003601f168201915b505050505081526020016002820180546103f790611e92565b80601f016020809104026020016040519081016040528092919081815260200182805461042390611e92565b80156104705780601f1061044557610100808354040283529160200191610470565b820191906000526020600020905b81548152906001019060200180831161045357829003601f168201915b5050505050815260200160038201805461048990611e92565b80601f01602080910402602001604051908101604052809291908181526020018280546104b590611e92565b80156105025780601f106104d757610100808354040283529160200191610502565b820191906000526020600020905b8154815290600101906020018083116104e557829003601f168201915b505050505081526020016004820160009054906101000a900460ff161515151581526020016004820160019054906101000a900460ff161515151581526020016004820160029054906101000a900460ff16151515158152505082828151811061056f5761056e611ec3565b5b6020026020010181905250808061058590611f21565b91505061029c565b508091505090565b60008060008581526020019081526020016000209050806000016040516020016105bf919061200c565b60405160208183030381529060405280519060200120336040516020016105e6919061209d565b604051602081830303815290604052805190602001201461063c576040517f08c379a00000000000000000000000000000000000000000000000000000000081526004016106339061212a565b60405180910390fd5b8060040160009054906101000a900460ff161561068e576040517f08c379a000000000000000000000000000000000000000000000000000000000815260040161068590612196565b60405180910390fd5b8281600201908161069f919061234d565b50818160030190816106b1919061234d565b507f319c78391a8afea7f2126b0a82735c48a3bce7f92c0d77ff4b050c49c7c40b808484846040516106e59392919061241f565b60405180910390a150505050565b600060205280600052604060002060009150905080600001805461071690611e92565b80601f016020809104026020016040519081016040528092919081815260200182805461074290611e92565b801561078f5780601f106107645761010080835404028352916020019161078f565b820191906000526020600020905b81548152906001019060200180831161077257829003601f168201915b5050505050908060010180546107a490611e92565b80601f01602080910402602001604051908101604052809291908181526020018280546107d090611e92565b801561081d5780601f106107f25761010080835404028352916020019161081d565b820191906000526020600020905b81548152906001019060200180831161080057829003601f168201915b50505050509080600201805461083290611e92565b80601f016020809104026020016040519081016040528092919081815260200182805461085e90611e92565b80156108ab5780601f10610880576101008083540402835291602001916108ab565b820191906000526020600020905b81548152906001019060200180831161088e57829003601f168201915b5050505050908060030180546108c090611e92565b80601f01602080910402602001604051908101604052809291908181526020018280546108ec90611e92565b80156109395780601f1061090e57610100808354040283529160200191610939565b820191906000526020600020905b81548152906001019060200180831161091c57829003601f168201915b5050505050908060040160009054906101000a900460ff16908060040160019054906101000a900460ff16908060040160029054906101000a900460ff16905087565b6002818051602081018201805184825260208301602085012081835280955050505050506000915090508060000180546109b590611e92565b80601f01602080910402602001604051908101604052809291908181526020018280546109e190611e92565b8015610a2e5780601f10610a0357610100808354040283529160200191610a2e565b820191906000526020600020905b815481529060010190602001808311610a1157829003601f168201915b505050505090806001018054610a4390611e92565b80601f0160208091040260200160405190810160405280929190818152602001828054610a6f90611e92565b8015610abc5780601f10610a9157610100808354040283529160200191610abc565b820191906000526020600020905b815481529060010190602001808311610a9f57829003601f168201915b5050505050905082565b610ace611671565b6000808381526020019081526020016000206040518060e0016040529081600082018054610afb90611e92565b80601f0160208091040260200160405190810160405280929190818152602001828054610b2790611e92565b8015610b745780601f10610b4957610100808354040283529160200191610b74565b820191906000526020600020905b815481529060010190602001808311610b5757829003601f168201915b50505050508152602001600182018054610b8d90611e92565b80601f0160208091040260200160405190810160405280929190818152602001828054610bb990611e92565b8015610c065780601f10610bdb57610100808354040283529160200191610c06565b820191906000526020600020905b815481529060010190602001808311610be957829003601f168201915b50505050508152602001600282018054610c1f90611e92565b80601f0160208091040260200160405190810160405280929190818152602001828054610c4b90611e92565b8015610c985780601f10610c6d57610100808354040283529160200191610c98565b820191906000526020600020905b815481529060010190602001808311610c7b57829003601f168201915b50505050508152602001600382018054610cb190611e92565b80601f0160208091040260200160405190810160405280929190818152602001828054610cdd90611e92565b8015610d2a5780601f10610cff57610100808354040283529160200191610d2a565b820191906000526020600020905b815481529060010190602001808311610d0d57829003601f168201915b505050505081526020016004820160009054906101000a900460ff161515151581526020016004820160019054906101000a900460ff161515151581526020016004820160029054906101000a900460ff1615151515815250509050919050565b6060600060015467ffffffffffffffff811115610dab57610daa611948565b5b604051908082528060200260200182016040528015610de457816020015b610dd1611671565b815260200190600190039081610dc95790505b5090506000805b6001548110156111525784604051602001610e069190612495565b60405160208183030381529060405280519060200120600080838152602001908152602001600020600101604051602001610e41919061200c565b604051602081830303815290604052805190602001200361113f576000808281526020019081526020016000206040518060e0016040529081600082018054610e8990611e92565b80601f0160208091040260200160405190810160405280929190818152602001828054610eb590611e92565b8015610f025780601f10610ed757610100808354040283529160200191610f02565b820191906000526020600020905b815481529060010190602001808311610ee557829003601f168201915b50505050508152602001600182018054610f1b90611e92565b80601f0160208091040260200160405190810160405280929190818152602001828054610f4790611e92565b8015610f945780601f10610f6957610100808354040283529160200191610f94565b820191906000526020600020905b815481529060010190602001808311610f7757829003601f168201915b50505050508152602001600282018054610fad90611e92565b80601f0160208091040260200160405190810160405280929190818152602001828054610fd990611e92565b80156110265780601f10610ffb57610100808354040283529160200191611026565b820191906000526020600020905b81548152906001019060200180831161100957829003601f168201915b5050505050815260200160038201805461103f90611e92565b80601f016020809104026020016040519081016040528092919081815260200182805461106b90611e92565b80156110b85780601f1061108d576101008083540402835291602001916110b8565b820191906000526020600020905b81548152906001019060200180831161109b57829003601f168201915b505050505081526020016004820160009054906101000a900460ff161515151581526020016004820160019054906101000a900460ff161515151581526020016004820160029054906101000a900460ff16151515158152505083838151811061112557611124611ec3565b5b6020026020010181905250818061113b90611f21565b9250505b808061114a90611f21565b915050610deb565b508082528192505050919050565b600080600083815260200190815260200160002090508060000160405160200161118a919061200c565b60405160208183030381529060405280519060200120336040516020016111b1919061209d565b6040516020818303038152906040528051906020012014611207576040517f08c379a00000000000000000000000000000000000000000000000000000000081526004016111fe9061251e565b60405180910390fd5b8060040160009054906101000a900460ff1615611259576040517f08c379a0000000000000000000000000000000000000000000000000000000008152600401611250906125b0565b60405180910390fd5b60018160040160006101000a81548160ff0219169083151502179055507f8e557a6299331fd8117e30f088849f8b3a685dd0c074d79648f17582428da192826040516112a59190611d71565b60405180910390a15050565b60015481565b6000600160008154809291906112cc90611f21565b9190505590506040518060e00160405280868152602001858152602001848152602001838152602001600015158152602001600015158152602001600015158152506000808381526020019081526020016000206000820151816000019081611335919061234d565b50602082015181600101908161134b919061234d565b506040820151816002019081611361919061234d565b506060820151816003019081611377919061234d565b5060808201518160040160006101000a81548160ff02191690831515021790555060a08201518160040160016101000a81548160ff02191690831515021790555060c08201518160040160026101000a81548160ff0219169083151502179055509050507f869bf7c5286d0226fb6d5fa72e68398734486eacdb76b92e011d4c1cf2a4f02e81868686866040516114129594939291906125d0565b60405180910390a15050505050565b60008082815260200190815260200160002060040160009054906101000a900460ff1615611484576040517f08c379a000000000000000000000000000000000000000000000000000000000815260040161147b9061268b565b60405180910390fd5b60008082815260200190815260200160002060040160019054906101000a900460ff16156114e7576040517f08c379a00000000000000000000000000000000000000000000000000000000081526004016114de906126f7565b60405180910390fd5b600160008083815260200190815260200160002060040160016101000a81548160ff02191690831515021790555050565b60008082815260200190815260200160002060040160009054906101000a900460ff161561157b576040517f08c379a00000000000000000000000000000000000000000000000000000000081526004016115729061268b565b60405180910390fd5b60008082815260200190815260200160002060040160019054906101000a900460ff166115dd576040517f08c379a00000000000000000000000000000000000000000000000000000000081526004016115d490612763565b60405180910390fd5b60008082815260200190815260200160002060040160029054906101000a900460ff1615611640576040517f08c379a0000000000000000000000000000000000000000000000000000000008152600401611637906127f5565b60405180910390fd5b600160008083815260200190815260200160002060040160026101000a81548160ff02191690831515021790555050565b6040518060e00160405280606081526020016060815260200160608152602001606081526020016000151581526020016000151581526020016000151581525090565b600081519050919050565b600082825260208201905092915050565b6000819050602082019050919050565b600081519050919050565b600082825260208201905092915050565b60005b8381101561171a5780820151818401526020810190506116ff565b60008484015250505050565b6000601f19601f8301169050919050565b6000611742826116e0565b61174c81856116eb565b935061175c8185602086016116fc565b61176581611726565b840191505092915050565b60008115159050919050565b61178581611770565b82525050565b600060e08301600083015184820360008601526117a88282611737565b915050602083015184820360208601526117c28282611737565b915050604083015184820360408601526117dc8282611737565b915050606083015184820360608601526117f68282611737565b915050608083015161180b608086018261177c565b5060a083015161181e60a086018261177c565b5060c083015161183160c086018261177c565b508091505092915050565b6000611848838361178b565b905092915050565b6000602082019050919050565b6000611868826116b4565b61187281856116bf565b935083602082028501611884856116d0565b8060005b858110156118c057848403895281516118a1858261183c565b94506118ac83611850565b925060208a01995050600181019050611888565b50829750879550505050505092915050565b600060208201905081810360008301526118ec818461185d565b905092915050565b6000604051905090565b600080fd5b600080fd5b6000819050919050565b61191b81611908565b811461192657600080fd5b50565b60008135905061193881611912565b92915050565b600080fd5b600080fd5b7f4e487b7100000000000000000000000000000000000000000000000000000000600052604160045260246000fd5b61198082611726565b810181811067ffffffffffffffff8211171561199f5761199e611948565b5b80604052505050565b60006119b26118f4565b90506119be8282611977565b919050565b600067ffffffffffffffff8211156119de576119dd611948565b5b6119e782611726565b9050602081019050919050565b82818337600083830152505050565b6000611a16611a11846119c3565b6119a8565b905082815260208101848484011115611a3257611a31611943565b5b611a3d8482856119f4565b509392505050565b600082601f830112611a5a57611a5961193e565b5b8135611a6a848260208601611a03565b91505092915050565b600080600060608486031215611a8c57611a8b6118fe565b5b6000611a9a86828701611929565b935050602084013567ffffffffffffffff811115611abb57611aba611903565b5b611ac786828701611a45565b925050604084013567ffffffffffffffff811115611ae857611ae7611903565b5b611af486828701611a45565b9150509250925092565b600060208284031215611b1457611b136118fe565b5b6000611b2284828501611929565b91505092915050565b600082825260208201905092915050565b6000611b47826116e0565b611b518185611b2b565b9350611b618185602086016116fc565b611b6a81611726565b840191505092915050565b611b7e81611770565b82525050565b600060e0820190508181036000830152611b9e818a611b3c565b90508181036020830152611bb28189611b3c565b90508181036040830152611bc68188611b3c565b90508181036060830152611bda8187611b3c565b9050611be96080830186611b75565b611bf660a0830185611b75565b611c0360c0830184611b75565b98975050505050505050565b600060208284031215611c2557611c246118fe565b5b600082013567ffffffffffffffff811115611c4357611c42611903565b5b611c4f84828501611a45565b91505092915050565b60006040820190508181036000830152611c728185611b3c565b90508181036020830152611c868184611b3c565b90509392505050565b600060e0830160008301518482036000860152611cac8282611737565b91505060208301518482036020860152611cc68282611737565b91505060408301518482036040860152611ce08282611737565b91505060608301518482036060860152611cfa8282611737565b9150506080830151611d0f608086018261177c565b5060a0830151611d2260a086018261177c565b5060c0830151611d3560c086018261177c565b508091505092915050565b60006020820190508181036000830152611d5a8184611c8f565b905092915050565b611d6b81611908565b82525050565b6000602082019050611d866000830184611d62565b92915050565b60008060008060808587031215611da657611da56118fe565b5b600085013567ffffffffffffffff811115611dc457611dc3611903565b5b611dd087828801611a45565b945050602085013567ffffffffffffffff811115611df157611df0611903565b5b611dfd87828801611a45565b935050604085013567ffffffffffffffff811115611e1e57611e1d611903565b5b611e2a87828801611a45565b925050606085013567ffffffffffffffff811115611e4b57611e4a611903565b5b611e5787828801611a45565b91505092959194509250565b7f4e487b7100000000000000000000000000000000000000000000000000000000600052602260045260246000fd5b60006002820490506001821680611eaa57607f821691505b602082108103611ebd57611ebc611e63565b5b50919050565b7f4e487b7100000000000000000000000000000000000000000000000000000000600052603260045260246000fd5b7f4e487b7100000000000000000000000000000000000000000000000000000000600052601160045260246000fd5b6000611f2c82611908565b91507fffffffffffffffffffffffffffffffffffffffffffffffffffffffffffffffff8203611f5e57611f5d611ef2565b5b600182019050919050565b600081905092915050565b60008190508160005260206000209050919050565b60008154611f9681611e92565b611fa08186611f69565b94506001821660008114611fbb5760018114611fd057612003565b60ff1983168652811515820286019350612003565b611fd985611f74565b60005b83811015611ffb57815481890152600182019150602081019050611fdc565b838801955050505b50505092915050565b60006120188284611f89565b915081905092915050565b600073ffffffffffffffffffffffffffffffffffffffff82169050919050565b600061204e82612023565b9050919050565b60008160601b9050919050565b600061206d82612055565b9050919050565b600061207f82612062565b9050919050565b61209761209282612043565b612074565b82525050565b60006120a98284612086565b60148201915081905092915050565b7f4f6e6c792074686520646f63746f722077686f2063726561746564207468652060008201527f707265736372697074696f6e2063616e206d6f64696679206974000000000000602082015250565b6000612114603a83611b2b565b915061211f826120b8565b604082019050919050565b6000602082019050818103600083015261214381612107565b9050919050565b7f507265736372697074696f6e20686173206265656e2064656c65746564000000600082015250565b6000612180601d83611b2b565b915061218b8261214a565b602082019050919050565b600060208201905081810360008301526121af81612173565b9050919050565b60006020601f8301049050919050565b600082821b905092915050565b6000600883026122037fffffffffffffffffffffffffffffffffffffffffffffffffffffffffffffffff826121c6565b61220d86836121c6565b95508019841693508086168417925050509392505050565b6000819050919050565b600061224a61224561224084611908565b612225565b611908565b9050919050565b6000819050919050565b6122648361222f565b61227861227082612251565b8484546121d3565b825550505050565b600090565b61228d612280565b61229881848461225b565b505050565b5b818110156122bc576122b1600082612285565b60018101905061229e565b5050565b601f821115612301576122d281611f74565b6122db846121b6565b810160208510156122ea578190505b6122fe6122f6856121b6565b83018261229d565b50505b505050565b600082821c905092915050565b600061232460001984600802612306565b1980831691505092915050565b600061233d8383612313565b9150826002028217905092915050565b612356826116e0565b67ffffffffffffffff81111561236f5761236e611948565b5b6123798254611e92565b6123848282856122c0565b600060209050601f8311600181146123b757600084156123a5578287015190505b6123af8582612331565b865550612417565b601f1984166123c586611f74565b60005b828110156123ed578489015182556001820191506020850194506020810190506123c8565b8683101561240a5784890151612406601f891682612313565b8355505b6001600288020188555050505b505050505050565b60006060820190506124346000830186611d62565b81810360208301526124468185611b3c565b9050818103604083015261245a8184611b3c565b9050949350505050565b600061246f826116e0565b6124798185611f69565b93506124898185602086016116fc565b80840191505092915050565b60006124a18284612464565b915081905092915050565b7f4f6e6c792074686520646f63746f722077686f2063726561746564207468652060008201527f707265736372697074696f6e2063616e2064656c657465206974000000000000602082015250565b6000612508603a83611b2b565b9150612513826124ac565b604082019050919050565b60006020820190508181036000830152612537816124fb565b9050919050565b7f507265736372697074696f6e2068617320616c7265616479206265656e20646560008201527f6c65746564000000000000000000000000000000000000000000000000000000602082015250565b600061259a602583611b2b565b91506125a58261253e565b604082019050919050565b600060208201905081810360008301526125c98161258d565b9050919050565b600060a0820190506125e56000830188611d62565b81810360208301526125f78187611b3c565b9050818103604083015261260b8186611b3c565b9050818103606083015261261f8185611b3c565b905081810360808301526126338184611b3c565b90509695505050505050565b7f507265736372697074696f6e2069732064656c65746564000000000000000000600082015250565b6000612675601783611b2b565b91506126808261263f565b602082019050919050565b600060208201905081810360008301526126a481612668565b9050919050565b7f507265736372697074696f6e20697320616c7265616479207061696400000000600082015250565b60006126e1601c83611b2b565b91506126ec826126ab565b602082019050919050565b60006020820190508181036000830152612710816126d4565b9050919050565b7f507265736372697074696f6e206973206e6f7420706169640000000000000000600082015250565b600061274d601883611b2b565b915061275882612717565b602082019050919050565b6000602082019050818103600083015261277c81612740565b9050919050565b7f507265736372697074696f6e20697320616c7265616479207265696d6275727360008201527f6564000000000000000000000000000000000000000000000000000000000000602082015250565b60006127df602283611b2b565b91506127ea82612783565b604082019050919050565b6000602082019050818103600083015261280e816127d2565b905091905056fea2646970667358221220b1670a81c53755baf8e881cc6a51de1499bf2556f3863a84291482e2f9eb475864736f6c63430008110033",
  "immutableReferences": {},
  "source": "// SPDX-License-Identifier: GPL-3.0\r\npragma solidity >=0.7.0 <0.9.0;\r\n\r\ncontract PrescriptionContract {\r\n    // Struct to store prescription details\r\n    struct Prescription {\r\n        string doctorUsername;\r\n        string patientUsername;\r\n        string medication;\r\n        string instructions;\r\n        bool isDeleted;\r\n        bool paidStatus;\r\n        bool reimbursementStatus; \r\n    }\r\n\r\n    // Struct to store user details\r\n    struct User {\r\n        string username;\r\n        string role;\r\n    }\r\n\r\n    // Mapping to store prescriptions\r\n    mapping(uint => Prescription) public prescriptions;\r\n    uint public prescriptionCount;\r\n\r\n    // Mapping to store user details using username as key\r\n    mapping(string => User) public users;\r\n\r\n    // Events for creation, modification, and deletion of prescriptions\r\n    event PrescriptionCreated(uint prescriptionId, string doctorUsername, string patientUsername, string medication, string instructions);\r\n    event PrescriptionModified(uint prescriptionId, string medication, string instructions);\r\n    event PrescriptionDeleted(uint prescriptionId);\r\n\r\n\r\n    //Getter for the prescription\r\n    function getPrescription(uint _prescriptionId) public view returns (Prescription memory) {\r\n        return prescriptions[_prescriptionId];\r\n    }\r\n\r\n    // Function to get all prescriptions\r\n    function getAllPrescriptions() public view returns (Prescription[] memory) {\r\n        Prescription[] memory allPrescriptions = new Prescription[](prescriptionCount);\r\n        for (uint i = 0; i < prescriptionCount; i++) {\r\n            allPrescriptions[i] = prescriptions[i];\r\n        }\r\n        return allPrescriptions;\r\n    }\r\n\r\n\r\n    //Change the PaidStatus\r\n    function markPrescriptionPaid(uint _prescriptionId) public {\r\n        require(!prescriptions[_prescriptionId].isDeleted, \"Prescription is deleted\");\r\n        require(!prescriptions[_prescriptionId].paidStatus, \"Prescription is already paid\");\r\n\r\n        prescriptions[_prescriptionId].paidStatus = true;\r\n\r\n    }\r\n\r\n    \r\n    //ChangethereimbursementStatus\r\n    function markPrescriptionReimbursed(uint _prescriptionId) public {\r\n        require(!prescriptions[_prescriptionId].isDeleted, \"Prescription is deleted\");\r\n        require(prescriptions[_prescriptionId].paidStatus, \"Prescription is not paid\");\r\n        require(!prescriptions[_prescriptionId].reimbursementStatus, \"Prescription is already reimbursed\");\r\n\r\n        prescriptions[_prescriptionId].reimbursementStatus = true;\r\n\r\n    }\r\n\r\n\r\n    // Function to create a new prescription\r\n    function createPrescription(string memory _doctorUsername, string memory _patientUsername, string memory _medication, string memory _instructions) public {\r\n        uint _prescriptionId = prescriptionCount++;\r\n        prescriptions[_prescriptionId] = Prescription(_doctorUsername, _patientUsername, _medication, _instructions, false, false, false); \r\n        emit PrescriptionCreated(_prescriptionId, _doctorUsername, _patientUsername, _medication, _instructions);\r\n    }\r\n\r\n    // Function to modify an existing prescription\r\n    function modifyPrescription(uint _prescriptionId, string memory _medication, string memory _instructions) public {\r\n        Prescription storage prescription = prescriptions[_prescriptionId];\r\n        require(keccak256(abi.encodePacked(msg.sender)) == keccak256(abi.encodePacked(prescription.doctorUsername)), \"Only the doctor who created the prescription can modify it\");\r\n        require(!prescription.isDeleted, \"Prescription has been deleted\");\r\n        prescription.medication = _medication;\r\n        prescription.instructions = _instructions;\r\n        emit PrescriptionModified(_prescriptionId, _medication, _instructions);\r\n    }\r\n\r\n    // Function to delete a prescription\r\n    function deletePrescription(uint _prescriptionId) public {\r\n        Prescription storage prescription = prescriptions[_prescriptionId];\r\n        require(keccak256(abi.encodePacked(msg.sender)) == keccak256(abi.encodePacked(prescription.doctorUsername)), \"Only the doctor who created the prescription can delete it\");\r\n        require(!prescription.isDeleted, \"Prescription has already been deleted\");\r\n        prescription.isDeleted = true;\r\n        emit PrescriptionDeleted(_prescriptionId);\r\n    }\r\n\r\n    // Function to get all prescriptions for a specific patient\r\n    function getAllPrescriptionsForPatient(string memory _patientUsername) public view returns (Prescription[] memory) {\r\n        Prescription[] memory patientPrescriptions = new Prescription[](prescriptionCount);\r\n        uint patientPrescriptionCount = 0;\r\n        for (uint i = 0; i < prescriptionCount; i++) {\r\n            if (keccak256(abi.encodePacked(prescriptions[i].patientUsername)) == keccak256(abi.encodePacked(_patientUsername))) {\r\n                patientPrescriptions[patientPrescriptionCount] = prescriptions[i];\r\n                patientPrescriptionCount++;\r\n            }\r\n        }\r\n        // Trim the array to remove any empty slots\r\n        assembly {\r\n            mstore(patientPrescriptions, patientPrescriptionCount)\r\n        }\r\n        return patientPrescriptions;\r\n    }\r\n}\r\n",
  "sourcePath": "C:\\Users\\21697\\OneDrive\\Bureau\\ii E\\II 2-E\\PCD\\project\\project\\contracts\\prescription.sol",
  "compiler": {
    "name": "solc",
    "version": "0.8.17+commit.8df45f5f.Emscripten.clang"
  },
  "schemaVersion": "3.4.16",
  "updatedAt": "2024-05-03T17:30:18.464Z",
  "networkType": "ethereum",
  "devdoc": {
    "kind": "dev",
    "methods": {},
    "version": 1
  },
  "userdoc": {
    "kind": "user",
    "methods": {},
    "version": 1
  }
}