{
  "contractName": "PrescriptionContract",
  "abi": [
    {
      "anonymous": false,
      "inputs": [
        {
          "indexed": false,
          "internalType": "uint256",
          "name": "prescriptionId",
          "type": "uint256"
        },
        {
          "indexed": false,
          "internalType": "string",
          "name": "doctorUsername",
          "type": "string"
        },
        {
          "indexed": false,
          "internalType": "string",
          "name": "patientUsername",
          "type": "string"
        },
        {
          "indexed": false,
          "internalType": "string",
          "name": "medication",
          "type": "string"
        },
        {
          "indexed": false,
          "internalType": "string",
          "name": "instructions",
          "type": "string"
        }
      ],
      "name": "PrescriptionCreated",
      "type": "event"
    },
    {
      "anonymous": false,
      "inputs": [
        {
          "indexed": false,
          "internalType": "uint256",
          "name": "prescriptionId",
          "type": "uint256"
        }
      ],
      "name": "PrescriptionDeleted",
      "type": "event"
    },
    {
      "anonymous": false,
      "inputs": [
        {
          "indexed": false,
          "internalType": "uint256",
          "name": "prescriptionId",
          "type": "uint256"
        },
        {
          "indexed": false,
          "internalType": "string",
          "name": "medication",
          "type": "string"
        },
        {
          "indexed": false,
          "internalType": "string",
          "name": "instructions",
          "type": "string"
        }
      ],
      "name": "PrescriptionModified",
      "type": "event"
    },
    {
      "inputs": [],
      "name": "prescriptionCount",
      "outputs": [
        {
          "internalType": "uint256",
          "name": "",
          "type": "uint256"
        }
      ],
      "stateMutability": "view",
      "type": "function",
      "constant": true
    },
    {
      "inputs": [
        {
          "internalType": "uint256",
          "name": "",
          "type": "uint256"
        }
      ],
      "name": "prescriptions",
      "outputs": [
        {
          "internalType": "string",
          "name": "doctorUsername",
          "type": "string"
        },
        {
          "internalType": "string",
          "name": "patientUsername",
          "type": "string"
        },
        {
          "internalType": "string",
          "name": "medication",
          "type": "string"
        },
        {
          "internalType": "string",
          "name": "instructions",
          "type": "string"
        },
        {
          "internalType": "bool",
          "name": "isDeleted",
          "type": "bool"
        },
        {
          "internalType": "bool",
          "name": "paidStatus",
          "type": "bool"
        },
        {
          "internalType": "bool",
          "name": "reimbursementStatus",
          "type": "bool"
        }
      ],
      "stateMutability": "view",
      "type": "function",
      "constant": true
    },
    {
      "inputs": [
        {
          "internalType": "string",
          "name": "",
          "type": "string"
        }
      ],
      "name": "users",
      "outputs": [
        {
          "internalType": "string",
          "name": "username",
          "type": "string"
        },
        {
          "internalType": "string",
          "name": "role",
          "type": "string"
        }
      ],
      "stateMutability": "view",
      "type": "function",
      "constant": true
    },
    {
      "inputs": [
        {
          "internalType": "uint256",
          "name": "_prescriptionId",
          "type": "uint256"
        }
      ],
      "name": "getPrescription",
      "outputs": [
        {
          "components": [
            {
              "internalType": "string",
              "name": "doctorUsername",
              "type": "string"
            },
            {
              "internalType": "string",
              "name": "patientUsername",
              "type": "string"
            },
            {
              "internalType": "string",
              "name": "medication",
              "type": "string"
            },
            {
              "internalType": "string",
              "name": "instructions",
              "type": "string"
            },
            {
              "internalType": "bool",
              "name": "isDeleted",
              "type": "bool"
            },
            {
              "internalType": "bool",
              "name": "paidStatus",
              "type": "bool"
            },
            {
              "internalType": "bool",
              "name": "reimbursementStatus",
              "type": "bool"
            }
          ],
          "internalType": "struct PrescriptionContract.Prescription",
          "name": "",
          "type": "tuple"
        }
      ],
      "stateMutability": "view",
      "type": "function",
      "constant": true
    },
    {
      "inputs": [],
      "name": "getAllPrescriptions",
      "outputs": [
        {
          "components": [
            {
              "internalType": "string",
              "name": "doctorUsername",
              "type": "string"
            },
            {
              "internalType": "string",
              "name": "patientUsername",
              "type": "string"
            },
            {
              "internalType": "string",
              "name": "medication",
              "type": "string"
            },
            {
              "internalType": "string",
              "name": "instructions",
              "type": "string"
            },
            {
              "internalType": "bool",
              "name": "isDeleted",
              "type": "bool"
            },
            {
              "internalType": "bool",
              "name": "paidStatus",
              "type": "bool"
            },
            {
              "internalType": "bool",
              "name": "reimbursementStatus",
              "type": "bool"
            }
          ],
          "internalType": "struct PrescriptionContract.Prescription[]",
          "name": "",
          "type": "tuple[]"
        }
      ],
      "stateMutability": "view",
      "type": "function",
      "constant": true
    },
    {
      "inputs": [
        {
          "internalType": "uint256",
          "name": "_prescriptionId",
          "type": "uint256"
        }
      ],
      "name": "markPrescriptionPaid",
      "outputs": [],
      "stateMutability": "nonpayable",
      "type": "function"
    },
    {
      "inputs": [
        {
          "internalType": "uint256",
          "name": "_prescriptionId",
          "type": "uint256"
        }
      ],
      "name": "markPrescriptionReimbursed",
      "outputs": [],
      "stateMutability": "nonpayable",
      "type": "function"
    },
    {
      "inputs": [
        {
          "internalType": "string",
          "name": "_doctorUsername",
          "type": "string"
        },
        {
          "internalType": "string",
          "name": "_patientUsername",
          "type": "string"
        },
        {
          "internalType": "string",
          "name": "_medication",
          "type": "string"
        },
        {
          "internalType": "string",
          "name": "_instructions",
          "type": "string"
        }
      ],
      "name": "createPrescription",
      "outputs": [],
      "stateMutability": "nonpayable",
      "type": "function"
    },
    {
      "inputs": [
        {
          "internalType": "uint256",
          "name": "_prescriptionId",
          "type": "uint256"
        },
        {
          "internalType": "string",
          "name": "_medication",
          "type": "string"
        },
        {
          "internalType": "string",
          "name": "_instructions",
          "type": "string"
        }
      ],
      "name": "modifyPrescription",
      "outputs": [],
      "stateMutability": "nonpayable",
      "type": "function"
    },
    {
      "inputs": [
        {
          "internalType": "uint256",
          "name": "_prescriptionId",
          "type": "uint256"
        },
        {
          "internalType": "string",
          "name": "_doctorUsername",
          "type": "string"
        }
      ],
      "name": "deletePrescription",
      "outputs": [],
      "stateMutability": "nonpayable",
      "type": "function"
    },
    {
      "inputs": [
        {
          "internalType": "string",
          "name": "_patientUsername",
          "type": "string"
        }
      ],
      "name": "getAllPrescriptionsForPatient",
      "outputs": [
        {
          "components": [
            {
              "internalType": "string",
              "name": "doctorUsername",
              "type": "string"
            },
            {
              "internalType": "string",
              "name": "patientUsername",
              "type": "string"
            },
            {
              "internalType": "string",
              "name": "medication",
              "type": "string"
            },
            {
              "internalType": "string",
              "name": "instructions",
              "type": "string"
            },
            {
              "internalType": "bool",
              "name": "isDeleted",
              "type": "bool"
            },
            {
              "internalType": "bool",
              "name": "paidStatus",
              "type": "bool"
            },
            {
              "internalType": "bool",
              "name": "reimbursementStatus",
              "type": "bool"
            }
          ],
          "internalType": "struct PrescriptionContract.Prescription[]",
          "name": "",
          "type": "tuple[]"
        }
      ],
      "stateMutability": "view",
      "type": "function",
      "constant": true
    },
    {
      "inputs": [
        {
          "internalType": "string",
          "name": "_doctorUsername",
          "type": "string"
        }
      ],
      "name": "getAllPrescriptionsForDoctor",
      "outputs": [
        {
          "components": [
            {
              "internalType": "string",
              "name": "doctorUsername",
              "type": "string"
            },
            {
              "internalType": "string",
              "name": "patientUsername",
              "type": "string"
            },
            {
              "internalType": "string",
              "name": "medication",
              "type": "string"
            },
            {
              "internalType": "string",
              "name": "instructions",
              "type": "string"
            },
            {
              "internalType": "bool",
              "name": "isDeleted",
              "type": "bool"
            },
            {
              "internalType": "bool",
              "name": "paidStatus",
              "type": "bool"
            },
            {
              "internalType": "bool",
              "name": "reimbursementStatus",
              "type": "bool"
            }
          ],
          "internalType": "struct PrescriptionContract.Prescription[]",
          "name": "",
          "type": "tuple[]"
        }
      ],
      "stateMutability": "view",
      "type": "function",
      "constant": true
    },
    {
      "inputs": [
        {
          "internalType": "uint256",
          "name": "_prescriptionId",
          "type": "uint256"
        }
      ],
      "name": "getPrescriptionById",
      "outputs": [
        {
          "components": [
            {
              "internalType": "string",
              "name": "doctorUsername",
              "type": "string"
            },
            {
              "internalType": "string",
              "name": "patientUsername",
              "type": "string"
            },
            {
              "internalType": "string",
              "name": "medication",
              "type": "string"
            },
            {
              "internalType": "string",
              "name": "instructions",
              "type": "string"
            },
            {
              "internalType": "bool",
              "name": "isDeleted",
              "type": "bool"
            },
            {
              "internalType": "bool",
              "name": "paidStatus",
              "type": "bool"
            },
            {
              "internalType": "bool",
              "name": "reimbursementStatus",
              "type": "bool"
            }
          ],
          "internalType": "struct PrescriptionContract.Prescription",
          "name": "",
          "type": "tuple"
        }
      ],
      "stateMutability": "view",
      "type": "function",
      "constant": true
    }
  ],
  "bytecode": "0x608060405234801561001057600080fd5b50612ec0806100206000396000f3fe608060405234801561001057600080fd5b50600436106100cf5760003560e01c80636f16af101161008c578063b655849811610066578063b655849814610251578063ba442b691461026f578063f5ab39131461028b578063ff211107146102a7576100cf565b80636f16af10146101c15780637d29ee3d146101f15780638b8a161914610221576100cf565b80630163e4f8146100d45780630b57f181146100f257806331dfc91b1461010e57806337cfdb8a1461014457806350cf682314610174578063689e1c0314610190575b600080fd5b6100dc6102c3565b6040516100e99190611fa6565b60405180910390f35b61010c60048036038101906101079190612147565b61061b565b005b610128600480360381019061012391906121d2565b6106e8565b60405161013b9796959493929190612258565b60405180910390f35b61015e600480360381019061015991906122e3565b610971565b60405161016b9190611fa6565b60405180910390f35b61018e6004803603810190610189919061232c565b610d46565b005b6101aa60048036038101906101a591906122e3565b610e98565b6040516101b8929190612388565b60405180910390f35b6101db60048036038101906101d691906121d2565b610fe2565b6040516101e89190612470565b60405180910390f35b61020b600480360381019061020691906122e3565b6112a7565b6040516102189190611fa6565b60405180910390f35b61023b600480360381019061023691906121d2565b61167c565b6040516102489190612470565b60405180910390f35b610259611985565b60405161026691906124a1565b60405180910390f35b610289600480360381019061028491906124bc565b61198b565b005b6102a560048036038101906102a091906121d2565b611af5565b005b6102c160048036038101906102bc91906121d2565b611bec565b005b6060600060015467ffffffffffffffff8111156102e3576102e261201c565b5b60405190808252806020026020018201604052801561031c57816020015b610309611d45565b8152602001906001900390816103015790505b50905060005b600154811015610613576000808281526020019081526020016000206040518060e0016040529081600082018054610359906125c2565b80601f0160208091040260200160405190810160405280929190818152602001828054610385906125c2565b80156103d25780601f106103a7576101008083540402835291602001916103d2565b820191906000526020600020905b8154815290600101906020018083116103b557829003601f168201915b505050505081526020016001820180546103eb906125c2565b80601f0160208091040260200160405190810160405280929190818152602001828054610417906125c2565b80156104645780601f1061043957610100808354040283529160200191610464565b820191906000526020600020905b81548152906001019060200180831161044757829003601f168201915b5050505050815260200160028201805461047d906125c2565b80601f01602080910402602001604051908101604052809291908181526020018280546104a9906125c2565b80156104f65780601f106104cb576101008083540402835291602001916104f6565b820191906000526020600020905b8154815290600101906020018083116104d957829003601f168201915b5050505050815260200160038201805461050f906125c2565b80601f016020809104026020016040519081016040528092919081815260200182805461053b906125c2565b80156105885780601f1061055d57610100808354040283529160200191610588565b820191906000526020600020905b81548152906001019060200180831161056b57829003601f168201915b505050505081526020016004820160009054906101000a900460ff161515151581526020016004820160019054906101000a900460ff161515151581526020016004820160029054906101000a900460ff1615151515815250508282815181106105f5576105f46125f3565b5b6020026020010181905250808061060b90612651565b915050610322565b508091505090565b600080600085815260200190815260200160002090508060040160009054906101000a900460ff1615610683576040517f08c379a000000000000000000000000000000000000000000000000000000000815260040161067a906126e5565b60405180910390fd5b8281600201908161069491906128b1565b50818160030190816106a691906128b1565b507f319c78391a8afea7f2126b0a82735c48a3bce7f92c0d77ff4b050c49c7c40b808484846040516106da93929190612983565b60405180910390a150505050565b600060205280600052604060002060009150905080600001805461070b906125c2565b80601f0160208091040260200160405190810160405280929190818152602001828054610737906125c2565b80156107845780601f1061075957610100808354040283529160200191610784565b820191906000526020600020905b81548152906001019060200180831161076757829003601f168201915b505050505090806001018054610799906125c2565b80601f01602080910402602001604051908101604052809291908181526020018280546107c5906125c2565b80156108125780601f106107e757610100808354040283529160200191610812565b820191906000526020600020905b8154815290600101906020018083116107f557829003601f168201915b505050505090806002018054610827906125c2565b80601f0160208091040260200160405190810160405280929190818152602001828054610853906125c2565b80156108a05780601f10610875576101008083540402835291602001916108a0565b820191906000526020600020905b81548152906001019060200180831161088357829003601f168201915b5050505050908060030180546108b5906125c2565b80601f01602080910402602001604051908101604052809291908181526020018280546108e1906125c2565b801561092e5780601f106109035761010080835404028352916020019161092e565b820191906000526020600020905b81548152906001019060200180831161091157829003601f168201915b5050505050908060040160009054906101000a900460ff16908060040160019054906101000a900460ff16908060040160029054906101000a900460ff16905087565b6060600060015467ffffffffffffffff8111156109915761099061201c565b5b6040519080825280602002602001820160405280156109ca57816020015b6109b7611d45565b8152602001906001900390816109af5790505b5090506000805b600154811015610d3857846040516020016109ec9190612a04565b60405160208183030381529060405280519060200120600080838152602001908152602001600020600001604051602001610a279190612a9e565b6040516020818303038152906040528051906020012003610d25576000808281526020019081526020016000206040518060e0016040529081600082018054610a6f906125c2565b80601f0160208091040260200160405190810160405280929190818152602001828054610a9b906125c2565b8015610ae85780601f10610abd57610100808354040283529160200191610ae8565b820191906000526020600020905b815481529060010190602001808311610acb57829003601f168201915b50505050508152602001600182018054610b01906125c2565b80601f0160208091040260200160405190810160405280929190818152602001828054610b2d906125c2565b8015610b7a5780601f10610b4f57610100808354040283529160200191610b7a565b820191906000526020600020905b815481529060010190602001808311610b5d57829003601f168201915b50505050508152602001600282018054610b93906125c2565b80601f0160208091040260200160405190810160405280929190818152602001828054610bbf906125c2565b8015610c0c5780601f10610be157610100808354040283529160200191610c0c565b820191906000526020600020905b815481529060010190602001808311610bef57829003601f168201915b50505050508152602001600382018054610c25906125c2565b80601f0160208091040260200160405190810160405280929190818152602001828054610c51906125c2565b8015610c9e5780601f10610c7357610100808354040283529160200191610c9e565b820191906000526020600020905b815481529060010190602001808311610c8157829003601f168201915b505050505081526020016004820160009054906101000a900460ff161515151581526020016004820160019054906101000a900460ff161515151581526020016004820160029054906101000a900460ff161515151581525050838381518110610d0b57610d0a6125f3565b5b60200260200101819052508180610d2190612651565b9250505b8080610d3090612651565b9150506109d1565b508082528192505050919050565b6000806000848152602001908152602001600020905080600001604051602001610d709190612a9e565b6040516020818303038152906040528051906020012082604051602001610d979190612a04565b6040516020818303038152906040528051906020012014610ded576040517f08c379a0000000000000000000000000000000000000000000000000000000008152600401610de490612b27565b60405180910390fd5b8060040160009054906101000a900460ff1615610e3f576040517f08c379a0000000000000000000000000000000000000000000000000000000008152600401610e3690612bb9565b60405180910390fd5b60018160040160006101000a81548160ff0219169083151502179055507f8e557a6299331fd8117e30f088849f8b3a685dd0c074d79648f17582428da19283604051610e8b91906124a1565b60405180910390a1505050565b600281805160208101820180518482526020830160208501208183528095505050505050600091509050806000018054610ed1906125c2565b80601f0160208091040260200160405190810160405280929190818152602001828054610efd906125c2565b8015610f4a5780601f10610f1f57610100808354040283529160200191610f4a565b820191906000526020600020905b815481529060010190602001808311610f2d57829003601f168201915b505050505090806001018054610f5f906125c2565b80601f0160208091040260200160405190810160405280929190818152602001828054610f8b906125c2565b8015610fd85780601f10610fad57610100808354040283529160200191610fd8565b820191906000526020600020905b815481529060010190602001808311610fbb57829003601f168201915b5050505050905082565b610fea611d45565b6000808381526020019081526020016000206040518060e0016040529081600082018054611017906125c2565b80601f0160208091040260200160405190810160405280929190818152602001828054611043906125c2565b80156110905780601f1061106557610100808354040283529160200191611090565b820191906000526020600020905b81548152906001019060200180831161107357829003601f168201915b505050505081526020016001820180546110a9906125c2565b80601f01602080910402602001604051908101604052809291908181526020018280546110d5906125c2565b80156111225780601f106110f757610100808354040283529160200191611122565b820191906000526020600020905b81548152906001019060200180831161110557829003601f168201915b5050505050815260200160028201805461113b906125c2565b80601f0160208091040260200160405190810160405280929190818152602001828054611167906125c2565b80156111b45780601f10611189576101008083540402835291602001916111b4565b820191906000526020600020905b81548152906001019060200180831161119757829003601f168201915b505050505081526020016003820180546111cd906125c2565b80601f01602080910402602001604051908101604052809291908181526020018280546111f9906125c2565b80156112465780601f1061121b57610100808354040283529160200191611246565b820191906000526020600020905b81548152906001019060200180831161122957829003601f168201915b505050505081526020016004820160009054906101000a900460ff161515151581526020016004820160019054906101000a900460ff161515151581526020016004820160029054906101000a900460ff1615151515815250509050919050565b6060600060015467ffffffffffffffff8111156112c7576112c661201c565b5b60405190808252806020026020018201604052801561130057816020015b6112ed611d45565b8152602001906001900390816112e55790505b5090506000805b60015481101561166e57846040516020016113229190612a04565b6040516020818303038152906040528051906020012060008083815260200190815260200160002060010160405160200161135d9190612a9e565b604051602081830303815290604052805190602001200361165b576000808281526020019081526020016000206040518060e00160405290816000820180546113a5906125c2565b80601f01602080910402602001604051908101604052809291908181526020018280546113d1906125c2565b801561141e5780601f106113f35761010080835404028352916020019161141e565b820191906000526020600020905b81548152906001019060200180831161140157829003601f168201915b50505050508152602001600182018054611437906125c2565b80601f0160208091040260200160405190810160405280929190818152602001828054611463906125c2565b80156114b05780601f10611485576101008083540402835291602001916114b0565b820191906000526020600020905b81548152906001019060200180831161149357829003601f168201915b505050505081526020016002820180546114c9906125c2565b80601f01602080910402602001604051908101604052809291908181526020018280546114f5906125c2565b80156115425780601f1061151757610100808354040283529160200191611542565b820191906000526020600020905b81548152906001019060200180831161152557829003601f168201915b5050505050815260200160038201805461155b906125c2565b80601f0160208091040260200160405190810160405280929190818152602001828054611587906125c2565b80156115d45780601f106115a9576101008083540402835291602001916115d4565b820191906000526020600020905b8154815290600101906020018083116115b757829003601f168201915b505050505081526020016004820160009054906101000a900460ff161515151581526020016004820160019054906101000a900460ff161515151581526020016004820160029054906101000a900460ff161515151581525050838381518110611641576116406125f3565b5b6020026020010181905250818061165790612651565b9250505b808061166690612651565b915050611307565b508082528192505050919050565b611684611d45565b60015482106116c8576040517f08c379a00000000000000000000000000000000000000000000000000000000081526004016116bf90612c25565b60405180910390fd5b6000808381526020019081526020016000206040518060e00160405290816000820180546116f5906125c2565b80601f0160208091040260200160405190810160405280929190818152602001828054611721906125c2565b801561176e5780601f106117435761010080835404028352916020019161176e565b820191906000526020600020905b81548152906001019060200180831161175157829003601f168201915b50505050508152602001600182018054611787906125c2565b80601f01602080910402602001604051908101604052809291908181526020018280546117b3906125c2565b80156118005780601f106117d557610100808354040283529160200191611800565b820191906000526020600020905b8154815290600101906020018083116117e357829003601f168201915b50505050508152602001600282018054611819906125c2565b80601f0160208091040260200160405190810160405280929190818152602001828054611845906125c2565b80156118925780601f1061186757610100808354040283529160200191611892565b820191906000526020600020905b81548152906001019060200180831161187557829003601f168201915b505050505081526020016003820180546118ab906125c2565b80601f01602080910402602001604051908101604052809291908181526020018280546118d7906125c2565b80156119245780601f106118f957610100808354040283529160200191611924565b820191906000526020600020905b81548152906001019060200180831161190757829003601f168201915b505050505081526020016004820160009054906101000a900460ff161515151581526020016004820160019054906101000a900460ff161515151581526020016004820160029054906101000a900460ff1615151515815250509050919050565b60015481565b6000600160008154809291906119a090612651565b9190505590506040518060e00160405280868152602001858152602001848152602001838152602001600015158152602001600015158152602001600015158152506000808381526020019081526020016000206000820151816000019081611a0991906128b1565b506020820151816001019081611a1f91906128b1565b506040820151816002019081611a3591906128b1565b506060820151816003019081611a4b91906128b1565b5060808201518160040160006101000a81548160ff02191690831515021790555060a08201518160040160016101000a81548160ff02191690831515021790555060c08201518160040160026101000a81548160ff0219169083151502179055509050507f869bf7c5286d0226fb6d5fa72e68398734486eacdb76b92e011d4c1cf2a4f02e8186868686604051611ae6959493929190612c45565b60405180910390a15050505050565b60008082815260200190815260200160002060040160009054906101000a900460ff1615611b58576040517f08c379a0000000000000000000000000000000000000000000000000000000008152600401611b4f90612d00565b60405180910390fd5b60008082815260200190815260200160002060040160019054906101000a900460ff1615611bbb576040517f08c379a0000000000000000000000000000000000000000000000000000000008152600401611bb290612d6c565b60405180910390fd5b600160008083815260200190815260200160002060040160016101000a81548160ff02191690831515021790555050565b60008082815260200190815260200160002060040160009054906101000a900460ff1615611c4f576040517f08c379a0000000000000000000000000000000000000000000000000000000008152600401611c4690612d00565b60405180910390fd5b60008082815260200190815260200160002060040160019054906101000a900460ff16611cb1576040517f08c379a0000000000000000000000000000000000000000000000000000000008152600401611ca890612dd8565b60405180910390fd5b60008082815260200190815260200160002060040160029054906101000a900460ff1615611d14576040517f08c379a0000000000000000000000000000000000000000000000000000000008152600401611d0b90612e6a565b60405180910390fd5b600160008083815260200190815260200160002060040160026101000a81548160ff02191690831515021790555050565b6040518060e00160405280606081526020016060815260200160608152602001606081526020016000151581526020016000151581526020016000151581525090565b600081519050919050565b600082825260208201905092915050565b6000819050602082019050919050565b600081519050919050565b600082825260208201905092915050565b60005b83811015611dee578082015181840152602081019050611dd3565b60008484015250505050565b6000601f19601f8301169050919050565b6000611e1682611db4565b611e208185611dbf565b9350611e30818560208601611dd0565b611e3981611dfa565b840191505092915050565b60008115159050919050565b611e5981611e44565b82525050565b600060e0830160008301518482036000860152611e7c8282611e0b565b91505060208301518482036020860152611e968282611e0b565b91505060408301518482036040860152611eb08282611e0b565b91505060608301518482036060860152611eca8282611e0b565b9150506080830151611edf6080860182611e50565b5060a0830151611ef260a0860182611e50565b5060c0830151611f0560c0860182611e50565b508091505092915050565b6000611f1c8383611e5f565b905092915050565b6000602082019050919050565b6000611f3c82611d88565b611f468185611d93565b935083602082028501611f5885611da4565b8060005b85811015611f945784840389528151611f758582611f10565b9450611f8083611f24565b925060208a01995050600181019050611f5c565b50829750879550505050505092915050565b60006020820190508181036000830152611fc08184611f31565b905092915050565b6000604051905090565b600080fd5b600080fd5b6000819050919050565b611fef81611fdc565b8114611ffa57600080fd5b50565b60008135905061200c81611fe6565b92915050565b600080fd5b600080fd5b7f4e487b7100000000000000000000000000000000000000000000000000000000600052604160045260246000fd5b61205482611dfa565b810181811067ffffffffffffffff821117156120735761207261201c565b5b80604052505050565b6000612086611fc8565b9050612092828261204b565b919050565b600067ffffffffffffffff8211156120b2576120b161201c565b5b6120bb82611dfa565b9050602081019050919050565b82818337600083830152505050565b60006120ea6120e584612097565b61207c565b90508281526020810184848401111561210657612105612017565b5b6121118482856120c8565b509392505050565b600082601f83011261212e5761212d612012565b5b813561213e8482602086016120d7565b91505092915050565b6000806000606084860312156121605761215f611fd2565b5b600061216e86828701611ffd565b935050602084013567ffffffffffffffff81111561218f5761218e611fd7565b5b61219b86828701612119565b925050604084013567ffffffffffffffff8111156121bc576121bb611fd7565b5b6121c886828701612119565b9150509250925092565b6000602082840312156121e8576121e7611fd2565b5b60006121f684828501611ffd565b91505092915050565b600082825260208201905092915050565b600061221b82611db4565b61222581856121ff565b9350612235818560208601611dd0565b61223e81611dfa565b840191505092915050565b61225281611e44565b82525050565b600060e0820190508181036000830152612272818a612210565b905081810360208301526122868189612210565b9050818103604083015261229a8188612210565b905081810360608301526122ae8187612210565b90506122bd6080830186612249565b6122ca60a0830185612249565b6122d760c0830184612249565b98975050505050505050565b6000602082840312156122f9576122f8611fd2565b5b600082013567ffffffffffffffff81111561231757612316611fd7565b5b61232384828501612119565b91505092915050565b6000806040838503121561234357612342611fd2565b5b600061235185828601611ffd565b925050602083013567ffffffffffffffff81111561237257612371611fd7565b5b61237e85828601612119565b9150509250929050565b600060408201905081810360008301526123a28185612210565b905081810360208301526123b68184612210565b90509392505050565b600060e08301600083015184820360008601526123dc8282611e0b565b915050602083015184820360208601526123f68282611e0b565b915050604083015184820360408601526124108282611e0b565b9150506060830151848203606086015261242a8282611e0b565b915050608083015161243f6080860182611e50565b5060a083015161245260a0860182611e50565b5060c083015161246560c0860182611e50565b508091505092915050565b6000602082019050818103600083015261248a81846123bf565b905092915050565b61249b81611fdc565b82525050565b60006020820190506124b66000830184612492565b92915050565b600080600080608085870312156124d6576124d5611fd2565b5b600085013567ffffffffffffffff8111156124f4576124f3611fd7565b5b61250087828801612119565b945050602085013567ffffffffffffffff81111561252157612520611fd7565b5b61252d87828801612119565b935050604085013567ffffffffffffffff81111561254e5761254d611fd7565b5b61255a87828801612119565b925050606085013567ffffffffffffffff81111561257b5761257a611fd7565b5b61258787828801612119565b91505092959194509250565b7f4e487b7100000000000000000000000000000000000000000000000000000000600052602260045260246000fd5b600060028204905060018216806125da57607f821691505b6020821081036125ed576125ec612593565b5b50919050565b7f4e487b7100000000000000000000000000000000000000000000000000000000600052603260045260246000fd5b7f4e487b7100000000000000000000000000000000000000000000000000000000600052601160045260246000fd5b600061265c82611fdc565b91507fffffffffffffffffffffffffffffffffffffffffffffffffffffffffffffffff820361268e5761268d612622565b5b600182019050919050565b7f507265736372697074696f6e20686173206265656e2064656c65746564000000600082015250565b60006126cf601d836121ff565b91506126da82612699565b602082019050919050565b600060208201905081810360008301526126fe816126c2565b9050919050565b60008190508160005260206000209050919050565b60006020601f8301049050919050565b600082821b905092915050565b6000600883026127677fffffffffffffffffffffffffffffffffffffffffffffffffffffffffffffffff8261272a565b612771868361272a565b95508019841693508086168417925050509392505050565b6000819050919050565b60006127ae6127a96127a484611fdc565b612789565b611fdc565b9050919050565b6000819050919050565b6127c883612793565b6127dc6127d4826127b5565b848454612737565b825550505050565b600090565b6127f16127e4565b6127fc8184846127bf565b505050565b5b81811015612820576128156000826127e9565b600181019050612802565b5050565b601f8211156128655761283681612705565b61283f8461271a565b8101602085101561284e578190505b61286261285a8561271a565b830182612801565b50505b505050565b600082821c905092915050565b60006128886000198460080261286a565b1980831691505092915050565b60006128a18383612877565b9150826002028217905092915050565b6128ba82611db4565b67ffffffffffffffff8111156128d3576128d261201c565b5b6128dd82546125c2565b6128e8828285612824565b600060209050601f83116001811461291b5760008415612909578287015190505b6129138582612895565b86555061297b565b601f19841661292986612705565b60005b828110156129515784890151825560018201915060208501945060208101905061292c565b8683101561296e578489015161296a601f891682612877565b8355505b6001600288020188555050505b505050505050565b60006060820190506129986000830186612492565b81810360208301526129aa8185612210565b905081810360408301526129be8184612210565b9050949350505050565b600081905092915050565b60006129de82611db4565b6129e881856129c8565b93506129f8818560208601611dd0565b80840191505092915050565b6000612a1082846129d3565b915081905092915050565b60008154612a28816125c2565b612a3281866129c8565b94506001821660008114612a4d5760018114612a6257612a95565b60ff1983168652811515820286019350612a95565b612a6b85612705565b60005b83811015612a8d57815481890152600182019150602081019050612a6e565b838801955050505b50505092915050565b6000612aaa8284612a1b565b915081905092915050565b7f4f6e6c792074686520646f63746f722077686f2063726561746564207468652060008201527f707265736372697074696f6e2063616e2064656c657465206974000000000000602082015250565b6000612b11603a836121ff565b9150612b1c82612ab5565b604082019050919050565b60006020820190508181036000830152612b4081612b04565b9050919050565b7f507265736372697074696f6e2068617320616c7265616479206265656e20646560008201527f6c65746564000000000000000000000000000000000000000000000000000000602082015250565b6000612ba36025836121ff565b9150612bae82612b47565b604082019050919050565b60006020820190508181036000830152612bd281612b96565b9050919050565b7f507265736372697074696f6e20494420646f6573206e6f742065786973740000600082015250565b6000612c0f601e836121ff565b9150612c1a82612bd9565b602082019050919050565b60006020820190508181036000830152612c3e81612c02565b9050919050565b600060a082019050612c5a6000830188612492565b8181036020830152612c6c8187612210565b90508181036040830152612c808186612210565b90508181036060830152612c948185612210565b90508181036080830152612ca88184612210565b90509695505050505050565b7f507265736372697074696f6e2069732064656c65746564000000000000000000600082015250565b6000612cea6017836121ff565b9150612cf582612cb4565b602082019050919050565b60006020820190508181036000830152612d1981612cdd565b9050919050565b7f507265736372697074696f6e20697320616c7265616479207061696400000000600082015250565b6000612d56601c836121ff565b9150612d6182612d20565b602082019050919050565b60006020820190508181036000830152612d8581612d49565b9050919050565b7f507265736372697074696f6e206973206e6f7420706169640000000000000000600082015250565b6000612dc26018836121ff565b9150612dcd82612d8c565b602082019050919050565b60006020820190508181036000830152612df181612db5565b9050919050565b7f507265736372697074696f6e20697320616c7265616479207265696d6275727360008201527f6564000000000000000000000000000000000000000000000000000000000000602082015250565b6000612e546022836121ff565b9150612e5f82612df8565b604082019050919050565b60006020820190508181036000830152612e8381612e47565b905091905056fea2646970667358221220ffd67eaaf15d86f7182f396d511a41a68eef63096d901e06c5ede3582f64c7ac64736f6c63430008110033",
  "immutableReferences": {},
  "source": "// SPDX-License-Identifier: GPL-3.0\r\npragma solidity >=0.7.0 <0.9.0;\r\n\r\ncontract PrescriptionContract {\r\n    // Struct to store prescription details\r\n    struct Prescription {\r\n        string doctorUsername;\r\n        string patientUsername;\r\n        string medication;\r\n        string instructions;\r\n        bool isDeleted;\r\n        bool paidStatus;\r\n        bool reimbursementStatus; \r\n    }\r\n\r\n    // Struct to store user details\r\n    struct User {\r\n        string username;\r\n        string role;\r\n    }\r\n\r\n    // Mapping to store prescriptions\r\n    mapping(uint => Prescription) public prescriptions;\r\n    uint public prescriptionCount;\r\n\r\n    // Mapping to store user details using username as key\r\n    mapping(string => User) public users;\r\n\r\n    // Events for creation, modification, and deletion of prescriptions\r\n    event PrescriptionCreated(uint prescriptionId, string doctorUsername, string patientUsername, string medication, string instructions);\r\n    event PrescriptionModified(uint prescriptionId, string medication, string instructions);\r\n    event PrescriptionDeleted(uint prescriptionId);\r\n\r\n\r\n    //Getter for the prescription\r\n    function getPrescription(uint _prescriptionId) public view returns (Prescription memory) {\r\n        return prescriptions[_prescriptionId];\r\n    }\r\n\r\n    // Function to get all prescriptions\r\n    function getAllPrescriptions() public view returns (Prescription[] memory) {\r\n        Prescription[] memory allPrescriptions = new Prescription[](prescriptionCount);\r\n        for (uint i = 0; i < prescriptionCount; i++) {\r\n            allPrescriptions[i] = prescriptions[i];\r\n        }\r\n        return allPrescriptions;\r\n    }\r\n\r\n\r\n    //Change the PaidStatus\r\n    function markPrescriptionPaid(uint _prescriptionId) public {\r\n        require(!prescriptions[_prescriptionId].isDeleted, \"Prescription is deleted\");\r\n        require(!prescriptions[_prescriptionId].paidStatus, \"Prescription is already paid\");\r\n\r\n        prescriptions[_prescriptionId].paidStatus = true;\r\n\r\n    }\r\n\r\n    \r\n    //ChangethereimbursementStatus\r\n    function markPrescriptionReimbursed(uint _prescriptionId) public {\r\n        require(!prescriptions[_prescriptionId].isDeleted, \"Prescription is deleted\");\r\n        require(prescriptions[_prescriptionId].paidStatus, \"Prescription is not paid\");\r\n        require(!prescriptions[_prescriptionId].reimbursementStatus, \"Prescription is already reimbursed\");\r\n\r\n        prescriptions[_prescriptionId].reimbursementStatus = true;\r\n\r\n    }\r\n\r\n\r\n    // Function to create a new prescription\r\n    function createPrescription(string memory _doctorUsername, string memory _patientUsername, string memory _medication, string memory _instructions) public {\r\n        uint _prescriptionId = prescriptionCount++;\r\n        prescriptions[_prescriptionId] = Prescription(_doctorUsername, _patientUsername, _medication, _instructions, false, false, false); \r\n        emit PrescriptionCreated(_prescriptionId, _doctorUsername, _patientUsername, _medication, _instructions);\r\n    }\r\n\r\n    // Function to modify an existing prescription\r\n    function modifyPrescription(uint _prescriptionId, string memory _medication, string memory _instructions) public {\r\n        Prescription storage prescription = prescriptions[_prescriptionId];\r\n        require(!prescription.isDeleted, \"Prescription has been deleted\");\r\n        prescription.medication = _medication;\r\n        prescription.instructions = _instructions;\r\n        emit PrescriptionModified(_prescriptionId, _medication, _instructions);\r\n    }\r\n\r\n    // Function to delete a prescription\r\n    function deletePrescription(uint _prescriptionId, string memory _doctorUsername) public {\r\n    Prescription storage prescription = prescriptions[_prescriptionId];\r\n    require(keccak256(abi.encodePacked(_doctorUsername)) == keccak256(abi.encodePacked(prescription.doctorUsername)), \"Only the doctor who created the prescription can delete it\");\r\n    require(!prescription.isDeleted, \"Prescription has already been deleted\");\r\n    prescription.isDeleted = true;\r\n    emit PrescriptionDeleted(_prescriptionId);\r\n}\r\n\r\n\r\n    // Function to get all prescriptions for a specific patient\r\n    function getAllPrescriptionsForPatient(string memory _patientUsername) public view returns (Prescription[] memory) {\r\n        Prescription[] memory patientPrescriptions = new Prescription[](prescriptionCount);\r\n        uint patientPrescriptionCount = 0;\r\n        for (uint i = 0; i < prescriptionCount; i++) {\r\n            if (keccak256(abi.encodePacked(prescriptions[i].patientUsername)) == keccak256(abi.encodePacked(_patientUsername))) {\r\n                patientPrescriptions[patientPrescriptionCount] = prescriptions[i];\r\n                patientPrescriptionCount++;\r\n            }\r\n        }\r\n        // Trim the array to remove any empty slots\r\n        assembly {\r\n            mstore(patientPrescriptions, patientPrescriptionCount)\r\n        }\r\n        return patientPrescriptions;\r\n    }\r\n    //function to get all prescriptions for a specific doctor\r\n     function getAllPrescriptionsForDoctor(string memory _doctorUsername) public view returns (Prescription[] memory) {\r\n        Prescription[] memory patientPrescriptions = new Prescription[](prescriptionCount);\r\n        uint patientPrescriptionCount = 0;\r\n        for (uint i = 0; i < prescriptionCount; i++) {\r\n            if (keccak256(abi.encodePacked(prescriptions[i].doctorUsername)) == keccak256(abi.encodePacked(_doctorUsername))) {\r\n                patientPrescriptions[patientPrescriptionCount] = prescriptions[i];\r\n                patientPrescriptionCount++;\r\n            }\r\n        }\r\n        // Trim the array to remove any empty slots\r\n        assembly {\r\n            mstore(patientPrescriptions, patientPrescriptionCount)\r\n        }\r\n        return patientPrescriptions;\r\n    }\r\n\r\n    function getPrescriptionById(uint _prescriptionId) public view returns (Prescription memory) {\r\n        require(_prescriptionId < prescriptionCount, \"Prescription ID does not exist\");\r\n        return prescriptions[_prescriptionId];\r\n    }\r\n}\r\n",
  "sourcePath": "C:\\Users\\21697\\OneDrive\\Bureau\\ii E\\II 2-E\\PCD\\project\\project\\contracts\\prescription.sol",
  "compiler": {
    "name": "solc",
    "version": "0.8.17+commit.8df45f5f.Emscripten.clang"
  },
  "schemaVersion": "3.4.16",
  "updatedAt": "2024-05-06T18:07:11.652Z",
  "networkType": "ethereum",
  "devdoc": {
    "kind": "dev",
    "methods": {},
    "version": 1
  },
  "userdoc": {
    "kind": "user",
    "methods": {},
    "version": 1
  }
}