{
  "contractName": "PrescriptionContract",
  "abi": [
    {
      "anonymous": false,
      "inputs": [
        {
          "indexed": false,
          "internalType": "uint256",
          "name": "prescriptionId",
          "type": "uint256"
        },
        {
          "indexed": false,
          "internalType": "address",
          "name": "doctor",
          "type": "address"
        },
        {
          "indexed": false,
          "internalType": "address",
          "name": "patient",
          "type": "address"
        },
        {
          "indexed": false,
          "internalType": "string",
          "name": "medication",
          "type": "string"
        },
        {
          "indexed": false,
          "internalType": "string",
          "name": "instructions",
          "type": "string"
        }
      ],
      "name": "PrescriptionCreated",
      "type": "event"
    },
    {
      "anonymous": false,
      "inputs": [
        {
          "indexed": false,
          "internalType": "uint256",
          "name": "prescriptionId",
          "type": "uint256"
        }
      ],
      "name": "PrescriptionDeleted",
      "type": "event"
    },
    {
      "anonymous": false,
      "inputs": [
        {
          "indexed": false,
          "internalType": "uint256",
          "name": "prescriptionId",
          "type": "uint256"
        },
        {
          "indexed": false,
          "internalType": "string",
          "name": "medication",
          "type": "string"
        },
        {
          "indexed": false,
          "internalType": "string",
          "name": "instructions",
          "type": "string"
        }
      ],
      "name": "PrescriptionModified",
      "type": "event"
    },
    {
      "inputs": [],
      "name": "latestPrescriptionId",
      "outputs": [
        {
          "internalType": "uint256",
          "name": "",
          "type": "uint256"
        }
      ],
      "stateMutability": "view",
      "type": "function",
      "constant": true
    },
    {
      "inputs": [],
      "name": "prescriptionCount",
      "outputs": [
        {
          "internalType": "uint256",
          "name": "",
          "type": "uint256"
        }
      ],
      "stateMutability": "view",
      "type": "function",
      "constant": true
    },
    {
      "inputs": [
        {
          "internalType": "uint256",
          "name": "",
          "type": "uint256"
        }
      ],
      "name": "prescriptions",
      "outputs": [
        {
          "internalType": "address",
          "name": "doctor",
          "type": "address"
        },
        {
          "internalType": "address",
          "name": "patient",
          "type": "address"
        },
        {
          "internalType": "string",
          "name": "medication",
          "type": "string"
        },
        {
          "internalType": "string",
          "name": "instructions",
          "type": "string"
        },
        {
          "internalType": "bool",
          "name": "isDeleted",
          "type": "bool"
        },
        {
          "internalType": "bool",
          "name": "paidStatus",
          "type": "bool"
        },
        {
          "internalType": "bool",
          "name": "reimbursementStatus",
          "type": "bool"
        }
      ],
      "stateMutability": "view",
      "type": "function",
      "constant": true
    },
    {
      "inputs": [
        {
          "internalType": "address",
          "name": "_patient",
          "type": "address"
        },
        {
          "internalType": "string",
          "name": "_medication",
          "type": "string"
        },
        {
          "internalType": "string",
          "name": "_instructions",
          "type": "string"
        }
      ],
      "name": "createPrescription",
      "outputs": [],
      "stateMutability": "nonpayable",
      "type": "function"
    },
    {
      "inputs": [
        {
          "internalType": "uint256",
          "name": "_prescriptionId",
          "type": "uint256"
        }
      ],
      "name": "getPrescription",
      "outputs": [
        {
          "components": [
            {
              "internalType": "address",
              "name": "doctor",
              "type": "address"
            },
            {
              "internalType": "address",
              "name": "patient",
              "type": "address"
            },
            {
              "internalType": "string",
              "name": "medication",
              "type": "string"
            },
            {
              "internalType": "string",
              "name": "instructions",
              "type": "string"
            },
            {
              "internalType": "bool",
              "name": "isDeleted",
              "type": "bool"
            },
            {
              "internalType": "bool",
              "name": "paidStatus",
              "type": "bool"
            },
            {
              "internalType": "bool",
              "name": "reimbursementStatus",
              "type": "bool"
            }
          ],
          "internalType": "struct PrescriptionContract.Prescription",
          "name": "",
          "type": "tuple"
        }
      ],
      "stateMutability": "view",
      "type": "function",
      "constant": true
    },
    {
      "inputs": [
        {
          "internalType": "uint256",
          "name": "_prescriptionId",
          "type": "uint256"
        }
      ],
      "name": "getPrescriptionPaidStatus",
      "outputs": [
        {
          "internalType": "bool",
          "name": "",
          "type": "bool"
        }
      ],
      "stateMutability": "view",
      "type": "function",
      "constant": true
    },
    {
      "inputs": [
        {
          "internalType": "uint256",
          "name": "_prescriptionId",
          "type": "uint256"
        }
      ],
      "name": "markPrescriptionPaid",
      "outputs": [],
      "stateMutability": "nonpayable",
      "type": "function"
    },
    {
      "inputs": [
        {
          "internalType": "uint256",
          "name": "_prescriptionId",
          "type": "uint256"
        }
      ],
      "name": "getPrescriptionMedication",
      "outputs": [
        {
          "internalType": "string",
          "name": "",
          "type": "string"
        }
      ],
      "stateMutability": "view",
      "type": "function",
      "constant": true
    },
    {
      "inputs": [
        {
          "internalType": "uint256",
          "name": "_prescriptionId",
          "type": "uint256"
        }
      ],
      "name": "getPrescriptionInstructions",
      "outputs": [
        {
          "internalType": "string",
          "name": "",
          "type": "string"
        }
      ],
      "stateMutability": "view",
      "type": "function",
      "constant": true
    },
    {
      "inputs": [
        {
          "internalType": "uint256",
          "name": "_prescriptionId",
          "type": "uint256"
        }
      ],
      "name": "getPrescriptionreimbursementStatus",
      "outputs": [
        {
          "internalType": "bool",
          "name": "",
          "type": "bool"
        }
      ],
      "stateMutability": "view",
      "type": "function",
      "constant": true
    },
    {
      "inputs": [
        {
          "internalType": "uint256",
          "name": "_prescriptionId",
          "type": "uint256"
        }
      ],
      "name": "markPrescriptionReimbursed",
      "outputs": [],
      "stateMutability": "nonpayable",
      "type": "function"
    },
    {
      "inputs": [
        {
          "internalType": "uint256",
          "name": "_prescriptionId",
          "type": "uint256"
        },
        {
          "internalType": "string",
          "name": "_medication",
          "type": "string"
        },
        {
          "internalType": "string",
          "name": "_instructions",
          "type": "string"
        }
      ],
      "name": "modifyPrescription",
      "outputs": [],
      "stateMutability": "nonpayable",
      "type": "function"
    },
    {
      "inputs": [
        {
          "internalType": "uint256",
          "name": "_prescriptionId",
          "type": "uint256"
        }
      ],
      "name": "deletePrescription",
      "outputs": [],
      "stateMutability": "nonpayable",
      "type": "function"
    }
  ],
  "bytecode": "0x608060405234801561001057600080fd5b50611dfc806100206000396000f3fe608060405234801561001057600080fd5b50600436106100cf5760003560e01c8063a97645fc1161008c578063c2e7120811610066578063c2e712081461023c578063f5ab39131461026c578063fc6d8f1e14610288578063ff211107146102a6576100cf565b8063a97645fc146101d2578063b6558498146101ee578063c0e311301461020c576100cf565b80630b57f181146100d457806331dfc91b146100f0578063487b9956146101265780635908e44e146101425780636f16af1014610172578063a5c15b16146101a2575b600080fd5b6100ee60048036038101906100e99190611178565b6102c2565b005b61010a60048036038101906101059190611203565b610421565b60405161011d979695949392919061130b565b60405180910390f35b610140600480360381019061013b91906113b4565b6105da565b005b61015c60048036038101906101579190611203565b6107d8565b604051610169919061143f565b60405180910390f35b61018c60048036038101906101879190611203565b610804565b6040516101999190611565565b60405180910390f35b6101bc60048036038101906101b79190611203565b610a51565b6040516101c99190611587565b60405180910390f35b6101ec60048036038101906101e79190611203565b610af8565b005b6101f6610c4a565b60405161020391906115b8565b60405180910390f35b61022660048036038101906102219190611203565b610c50565b604051610233919061143f565b60405180910390f35b61025660048036038101906102519190611203565b610c7c565b6040516102639190611587565b60405180910390f35b61028660048036038101906102819190611203565b610d23565b005b610290610e1a565b60405161029d91906115b8565b60405180910390f35b6102c060048036038101906102bb9190611203565b610e20565b005b600080600085815260200190815260200160002090508060000160009054906101000a900473ffffffffffffffffffffffffffffffffffffffff1673ffffffffffffffffffffffffffffffffffffffff163373ffffffffffffffffffffffffffffffffffffffff161461036a576040517f08c379a000000000000000000000000000000000000000000000000000000000815260040161036190611645565b60405180910390fd5b8060040160009054906101000a900460ff16156103bc576040517f08c379a00000000000000000000000000000000000000000000000000000000081526004016103b3906116b1565b60405180910390fd5b828160020190816103cd91906118dd565b50818160030190816103df91906118dd565b507f319c78391a8afea7f2126b0a82735c48a3bce7f92c0d77ff4b050c49c7c40b80848484604051610413939291906119af565b60405180910390a150505050565b60006020528060005260406000206000915090508060000160009054906101000a900473ffffffffffffffffffffffffffffffffffffffff16908060010160009054906101000a900473ffffffffffffffffffffffffffffffffffffffff169080600201805461049090611700565b80601f01602080910402602001604051908101604052809291908181526020018280546104bc90611700565b80156105095780601f106104de57610100808354040283529160200191610509565b820191906000526020600020905b8154815290600101906020018083116104ec57829003601f168201915b50505050509080600301805461051e90611700565b80601f016020809104026020016040519081016040528092919081815260200182805461054a90611700565b80156105975780601f1061056c57610100808354040283529160200191610597565b820191906000526020600020905b81548152906001019060200180831161057a57829003601f168201915b5050505050908060040160009054906101000a900460ff16908060040160019054906101000a900460ff16908060040160029054906101000a900460ff16905087565b6000600160008154809291906105ef90611a23565b919050559050806002819055506040518060e001604052803373ffffffffffffffffffffffffffffffffffffffff1681526020018573ffffffffffffffffffffffffffffffffffffffff1681526020018481526020018381526020016000151581526020016000151581526020016000151581525060008083815260200190815260200160002060008201518160000160006101000a81548173ffffffffffffffffffffffffffffffffffffffff021916908373ffffffffffffffffffffffffffffffffffffffff16021790555060208201518160010160006101000a81548173ffffffffffffffffffffffffffffffffffffffff021916908373ffffffffffffffffffffffffffffffffffffffff160217905550604082015181600201908161071991906118dd565b50606082015181600301908161072f91906118dd565b5060808201518160040160006101000a81548160ff02191690831515021790555060a08201518160040160016101000a81548160ff02191690831515021790555060c08201518160040160026101000a81548160ff0219169083151502179055509050507fdb654e83452a6e3db1b1739b37d729526beaa0d9098512c55d3200031738985981338686866040516107ca959493929190611a6b565b60405180910390a150505050565b600080600083815260200190815260200160002060040160019054906101000a900460ff169050919050565b61080c610f79565b6000808381526020019081526020016000206040518060e00160405290816000820160009054906101000a900473ffffffffffffffffffffffffffffffffffffffff1673ffffffffffffffffffffffffffffffffffffffff1673ffffffffffffffffffffffffffffffffffffffff1681526020016001820160009054906101000a900473ffffffffffffffffffffffffffffffffffffffff1673ffffffffffffffffffffffffffffffffffffffff1673ffffffffffffffffffffffffffffffffffffffff1681526020016002820180546108e590611700565b80601f016020809104026020016040519081016040528092919081815260200182805461091190611700565b801561095e5780601f106109335761010080835404028352916020019161095e565b820191906000526020600020905b81548152906001019060200180831161094157829003601f168201915b5050505050815260200160038201805461097790611700565b80601f01602080910402602001604051908101604052809291908181526020018280546109a390611700565b80156109f05780601f106109c5576101008083540402835291602001916109f0565b820191906000526020600020905b8154815290600101906020018083116109d357829003601f168201915b505050505081526020016004820160009054906101000a900460ff161515151581526020016004820160019054906101000a900460ff161515151581526020016004820160029054906101000a900460ff1615151515815250509050919050565b60606000808381526020019081526020016000206002018054610a7390611700565b80601f0160208091040260200160405190810160405280929190818152602001828054610a9f90611700565b8015610aec5780601f10610ac157610100808354040283529160200191610aec565b820191906000526020600020905b815481529060010190602001808311610acf57829003601f168201915b50505050509050919050565b600080600083815260200190815260200160002090508060000160009054906101000a900473ffffffffffffffffffffffffffffffffffffffff1673ffffffffffffffffffffffffffffffffffffffff163373ffffffffffffffffffffffffffffffffffffffff1614610ba0576040517f08c379a0000000000000000000000000000000000000000000000000000000008152600401610b9790611b3e565b60405180910390fd5b8060040160009054906101000a900460ff1615610bf2576040517f08c379a0000000000000000000000000000000000000000000000000000000008152600401610be990611bd0565b60405180910390fd5b60018160040160006101000a81548160ff0219169083151502179055507f8e557a6299331fd8117e30f088849f8b3a685dd0c074d79648f17582428da19282604051610c3e91906115b8565b60405180910390a15050565b60015481565b600080600083815260200190815260200160002060040160029054906101000a900460ff169050919050565b60606000808381526020019081526020016000206003018054610c9e90611700565b80601f0160208091040260200160405190810160405280929190818152602001828054610cca90611700565b8015610d175780601f10610cec57610100808354040283529160200191610d17565b820191906000526020600020905b815481529060010190602001808311610cfa57829003601f168201915b50505050509050919050565b60008082815260200190815260200160002060040160009054906101000a900460ff1615610d86576040517f08c379a0000000000000000000000000000000000000000000000000000000008152600401610d7d90611c3c565b60405180910390fd5b60008082815260200190815260200160002060040160019054906101000a900460ff1615610de9576040517f08c379a0000000000000000000000000000000000000000000000000000000008152600401610de090611ca8565b60405180910390fd5b600160008083815260200190815260200160002060040160016101000a81548160ff02191690831515021790555050565b60025481565b60008082815260200190815260200160002060040160009054906101000a900460ff1615610e83576040517f08c379a0000000000000000000000000000000000000000000000000000000008152600401610e7a90611c3c565b60405180910390fd5b60008082815260200190815260200160002060040160019054906101000a900460ff16610ee5576040517f08c379a0000000000000000000000000000000000000000000000000000000008152600401610edc90611d14565b60405180910390fd5b60008082815260200190815260200160002060040160029054906101000a900460ff1615610f48576040517f08c379a0000000000000000000000000000000000000000000000000000000008152600401610f3f90611da6565b60405180910390fd5b600160008083815260200190815260200160002060040160026101000a81548160ff02191690831515021790555050565b6040518060e00160405280600073ffffffffffffffffffffffffffffffffffffffff168152602001600073ffffffffffffffffffffffffffffffffffffffff16815260200160608152602001606081526020016000151581526020016000151581526020016000151581525090565b6000604051905090565b600080fd5b600080fd5b6000819050919050565b61100f81610ffc565b811461101a57600080fd5b50565b60008135905061102c81611006565b92915050565b600080fd5b600080fd5b6000601f19601f8301169050919050565b7f4e487b7100000000000000000000000000000000000000000000000000000000600052604160045260246000fd5b6110858261103c565b810181811067ffffffffffffffff821117156110a4576110a361104d565b5b80604052505050565b60006110b7610fe8565b90506110c3828261107c565b919050565b600067ffffffffffffffff8211156110e3576110e261104d565b5b6110ec8261103c565b9050602081019050919050565b82818337600083830152505050565b600061111b611116846110c8565b6110ad565b90508281526020810184848401111561113757611136611037565b5b6111428482856110f9565b509392505050565b600082601f83011261115f5761115e611032565b5b813561116f848260208601611108565b91505092915050565b60008060006060848603121561119157611190610ff2565b5b600061119f8682870161101d565b935050602084013567ffffffffffffffff8111156111c0576111bf610ff7565b5b6111cc8682870161114a565b925050604084013567ffffffffffffffff8111156111ed576111ec610ff7565b5b6111f98682870161114a565b9150509250925092565b60006020828403121561121957611218610ff2565b5b60006112278482850161101d565b91505092915050565b600073ffffffffffffffffffffffffffffffffffffffff82169050919050565b600061125b82611230565b9050919050565b61126b81611250565b82525050565b600081519050919050565b600082825260208201905092915050565b60005b838110156112ab578082015181840152602081019050611290565b60008484015250505050565b60006112c282611271565b6112cc818561127c565b93506112dc81856020860161128d565b6112e58161103c565b840191505092915050565b60008115159050919050565b611305816112f0565b82525050565b600060e082019050611320600083018a611262565b61132d6020830189611262565b818103604083015261133f81886112b7565b9050818103606083015261135381876112b7565b905061136260808301866112fc565b61136f60a08301856112fc565b61137c60c08301846112fc565b98975050505050505050565b61139181611250565b811461139c57600080fd5b50565b6000813590506113ae81611388565b92915050565b6000806000606084860312156113cd576113cc610ff2565b5b60006113db8682870161139f565b935050602084013567ffffffffffffffff8111156113fc576113fb610ff7565b5b6114088682870161114a565b925050604084013567ffffffffffffffff81111561142957611428610ff7565b5b6114358682870161114a565b9150509250925092565b600060208201905061145460008301846112fc565b92915050565b61146381611250565b82525050565b600082825260208201905092915050565b600061148582611271565b61148f8185611469565b935061149f81856020860161128d565b6114a88161103c565b840191505092915050565b6114bc816112f0565b82525050565b600060e0830160008301516114da600086018261145a565b5060208301516114ed602086018261145a565b5060408301518482036040860152611505828261147a565b9150506060830151848203606086015261151f828261147a565b915050608083015161153460808601826114b3565b5060a083015161154760a08601826114b3565b5060c083015161155a60c08601826114b3565b508091505092915050565b6000602082019050818103600083015261157f81846114c2565b905092915050565b600060208201905081810360008301526115a181846112b7565b905092915050565b6115b281610ffc565b82525050565b60006020820190506115cd60008301846115a9565b92915050565b7f4f6e6c792074686520646f63746f722077686f2063726561746564207468652060008201527f707265736372697074696f6e2063616e206d6f64696679206974000000000000602082015250565b600061162f603a8361127c565b915061163a826115d3565b604082019050919050565b6000602082019050818103600083015261165e81611622565b9050919050565b7f507265736372697074696f6e20686173206265656e2064656c65746564000000600082015250565b600061169b601d8361127c565b91506116a682611665565b602082019050919050565b600060208201905081810360008301526116ca8161168e565b9050919050565b7f4e487b7100000000000000000000000000000000000000000000000000000000600052602260045260246000fd5b6000600282049050600182168061171857607f821691505b60208210810361172b5761172a6116d1565b5b50919050565b60008190508160005260206000209050919050565b60006020601f8301049050919050565b600082821b905092915050565b6000600883026117937fffffffffffffffffffffffffffffffffffffffffffffffffffffffffffffffff82611756565b61179d8683611756565b95508019841693508086168417925050509392505050565b6000819050919050565b60006117da6117d56117d084610ffc565b6117b5565b610ffc565b9050919050565b6000819050919050565b6117f4836117bf565b611808611800826117e1565b848454611763565b825550505050565b600090565b61181d611810565b6118288184846117eb565b505050565b5b8181101561184c57611841600082611815565b60018101905061182e565b5050565b601f8211156118915761186281611731565b61186b84611746565b8101602085101561187a578190505b61188e61188685611746565b83018261182d565b50505b505050565b600082821c905092915050565b60006118b460001984600802611896565b1980831691505092915050565b60006118cd83836118a3565b9150826002028217905092915050565b6118e682611271565b67ffffffffffffffff8111156118ff576118fe61104d565b5b6119098254611700565b611914828285611850565b600060209050601f8311600181146119475760008415611935578287015190505b61193f85826118c1565b8655506119a7565b601f19841661195586611731565b60005b8281101561197d57848901518255600182019150602085019450602081019050611958565b8683101561199a5784890151611996601f8916826118a3565b8355505b6001600288020188555050505b505050505050565b60006060820190506119c460008301866115a9565b81810360208301526119d681856112b7565b905081810360408301526119ea81846112b7565b9050949350505050565b7f4e487b7100000000000000000000000000000000000000000000000000000000600052601160045260246000fd5b6000611a2e82610ffc565b91507fffffffffffffffffffffffffffffffffffffffffffffffffffffffffffffffff8203611a6057611a5f6119f4565b5b600182019050919050565b600060a082019050611a8060008301886115a9565b611a8d6020830187611262565b611a9a6040830186611262565b8181036060830152611aac81856112b7565b90508181036080830152611ac081846112b7565b90509695505050505050565b7f4f6e6c792074686520646f63746f722077686f2063726561746564207468652060008201527f707265736372697074696f6e2063616e2064656c657465206974000000000000602082015250565b6000611b28603a8361127c565b9150611b3382611acc565b604082019050919050565b60006020820190508181036000830152611b5781611b1b565b9050919050565b7f507265736372697074696f6e2068617320616c7265616479206265656e20646560008201527f6c65746564000000000000000000000000000000000000000000000000000000602082015250565b6000611bba60258361127c565b9150611bc582611b5e565b604082019050919050565b60006020820190508181036000830152611be981611bad565b9050919050565b7f507265736372697074696f6e2069732064656c65746564000000000000000000600082015250565b6000611c2660178361127c565b9150611c3182611bf0565b602082019050919050565b60006020820190508181036000830152611c5581611c19565b9050919050565b7f507265736372697074696f6e20697320616c7265616479207061696400000000600082015250565b6000611c92601c8361127c565b9150611c9d82611c5c565b602082019050919050565b60006020820190508181036000830152611cc181611c85565b9050919050565b7f507265736372697074696f6e206973206e6f7420706169640000000000000000600082015250565b6000611cfe60188361127c565b9150611d0982611cc8565b602082019050919050565b60006020820190508181036000830152611d2d81611cf1565b9050919050565b7f507265736372697074696f6e20697320616c7265616479207265696d6275727360008201527f6564000000000000000000000000000000000000000000000000000000000000602082015250565b6000611d9060228361127c565b9150611d9b82611d34565b604082019050919050565b60006020820190508181036000830152611dbf81611d83565b905091905056fea2646970667358221220881bf9083cb6142f983fda7be7c04584b06ab0c7be3f010c1e2ad65700830a6564736f6c63430008110033",
  "immutableReferences": {},
  "source": "// SPDX-License-Identifier: GPL-3.0\r\npragma solidity >=0.7.0 <0.9.0;\r\n\r\ncontract PrescriptionContract {\r\n    // Struct to store prescription details\r\n    struct Prescription {\r\n        address doctor;\r\n        address patient;\r\n        string medication;\r\n        string instructions;\r\n        bool isDeleted;\r\n        bool paidStatus;\r\n        bool reimbursementStatus; \r\n    }\r\n\r\n\r\n    // Mapping to store prescriptions\r\n    mapping(uint => Prescription) public prescriptions;\r\n    uint public prescriptionCount;\r\n\r\n   uint public latestPrescriptionId; // Variable to store the latest prescription ID\r\n\r\n    // Events for creation, modification, and deletion of prescriptions\r\n    event PrescriptionCreated(uint prescriptionId, address doctor, address patient, string medication, string instructions);\r\n    event PrescriptionModified(uint prescriptionId, string medication, string instructions);\r\n    event PrescriptionDeleted(uint prescriptionId);\r\n\r\n    // Function to create a new prescription\r\n    function createPrescription(address _patient, string memory _medication, string memory _instructions) public {\r\n        uint _prescriptionId = prescriptionCount++;\r\n        latestPrescriptionId = _prescriptionId; // Update the latest prescription ID\r\n        prescriptions[_prescriptionId] = Prescription(msg.sender, _patient, _medication, _instructions, false,false, false); \r\n        emit PrescriptionCreated(_prescriptionId, msg.sender, _patient, _medication, _instructions);\r\n    }\r\n    \r\n    //Getter for the prescription\r\n    function getPrescription(uint _prescriptionId) public view returns (Prescription memory) {\r\n        return prescriptions[_prescriptionId];\r\n    }\r\n\r\n    //Getter function to use in the other contracts\r\n    function getPrescriptionPaidStatus(uint _prescriptionId) public view returns (bool) {\r\n        return prescriptions[_prescriptionId].paidStatus;\r\n    }\r\n\r\n\r\n    //Change the PaidStatus\r\n    function markPrescriptionPaid(uint _prescriptionId) public {\r\n        require(!prescriptions[_prescriptionId].isDeleted, \"Prescription is deleted\");\r\n        require(!prescriptions[_prescriptionId].paidStatus, \"Prescription is already paid\");\r\n\r\n        prescriptions[_prescriptionId].paidStatus = true;\r\n\r\n    }\r\n\r\n    // Getter function for medication\r\n    function getPrescriptionMedication(uint _prescriptionId) public view returns (string memory) {\r\n        return prescriptions[_prescriptionId].medication;\r\n    }\r\n\r\n    // Getter function for instructions\r\n    function getPrescriptionInstructions(uint _prescriptionId) public view returns (string memory) {\r\n        return prescriptions[_prescriptionId].instructions;\r\n    }\r\n\r\n    //Getter for the reimbursedStatus\r\n    function getPrescriptionreimbursementStatus(uint _prescriptionId)public view returns(bool) {\r\n        return prescriptions[_prescriptionId].reimbursementStatus;\r\n    }\r\n    \r\n    //ChangethereimbursementStatus\r\n    function markPrescriptionReimbursed(uint _prescriptionId) public {\r\n        require(!prescriptions[_prescriptionId].isDeleted, \"Prescription is deleted\");\r\n        require(prescriptions[_prescriptionId].paidStatus, \"Prescription is not paid\");\r\n        require(!prescriptions[_prescriptionId].reimbursementStatus, \"Prescription is already reimbursed\");\r\n\r\n        prescriptions[_prescriptionId].reimbursementStatus = true;\r\n\r\n    }\r\n\r\n    \r\n\r\n    // Function to modify an existing prescription\r\n    function modifyPrescription(uint _prescriptionId, string memory _medication, string memory _instructions) public {\r\n        Prescription storage prescription = prescriptions[_prescriptionId];\r\n        require(msg.sender == prescription.doctor, \"Only the doctor who created the prescription can modify it\");\r\n        require(!prescription.isDeleted, \"Prescription has been deleted\");\r\n        prescription.medication = _medication;\r\n        prescription.instructions = _instructions;\r\n        emit PrescriptionModified(_prescriptionId, _medication, _instructions);\r\n    }\r\n\r\n    // Function to delete a prescription\r\n    function deletePrescription(uint _prescriptionId) public {\r\n        Prescription storage prescription = prescriptions[_prescriptionId];\r\n        require(msg.sender == prescription.doctor, \"Only the doctor who created the prescription can delete it\");\r\n        require(!prescription.isDeleted, \"Prescription has already been deleted\");\r\n        prescription.isDeleted = true;\r\n        emit PrescriptionDeleted(_prescriptionId);\r\n    }\r\n}\r\n",
  "sourcePath": "C:\\Users\\21697\\OneDrive\\Bureau\\ii E\\II 2-E\\PCD\\project\\project\\contracts\\prescription.sol",
  "compiler": {
    "name": "solc",
    "version": "0.8.17+commit.8df45f5f.Emscripten.clang"
  },
  "schemaVersion": "3.4.16",
  "updatedAt": "2024-04-25T09:40:03.262Z",
  "networkType": "ethereum",
  "devdoc": {
    "kind": "dev",
    "methods": {},
    "version": 1
  },
  "userdoc": {
    "kind": "user",
    "methods": {},
    "version": 1
  }
}